{
  "address": "0xF2d02e288Bb28D7dbB3FbBb2a4876199A98A06d1",
  "abi": [
    {
      "inputs": [],
      "name": "HEALTH_FACTOR_LIQUIDATION_THRESHOLD",
      "outputs": [
        {
          "internalType": "uint256",
          "name": "",
          "type": "uint256"
        }
      ],
      "stateMutability": "view",
      "type": "function"
    },
    {
      "inputs": [
        {
          "internalType": "uint256",
          "name": "totalCollateral",
          "type": "uint256"
        },
        {
          "internalType": "uint256",
          "name": "totalDebt",
          "type": "uint256"
        },
        {
          "internalType": "uint256",
          "name": "ltv",
          "type": "uint256"
        }
      ],
      "name": "calculateAvailableBorrow",
      "outputs": [
        {
          "internalType": "uint256",
          "name": "",
          "type": "uint256"
        }
      ],
      "stateMutability": "pure",
      "type": "function"
    }
  ],
  "transactionHash": "0xdab72939522d251eaa1dcea82f6fdf4c49cc3aa5693afcc82c7cfdfb1bab105d",
  "args": [],
  "numDeployments": 1,
  "solcInputHash": "516813ffcda9f29a5ad99ec0e22b25cd",
  "bytecode": "0x61026961003a600b82828239805160001a60731461002d57634e487b7160e01b600052600060045260246000fd5b30600052607381538281f3fe73000000000000000000000000000000000000000030146080604052600436106100405760003560e01c80631a6d1d7b14610045578063c3525c281461006a575b600080fd5b610058610053366004610181565b610079565b60405190815260200160405180910390f35b610058670de0b6b3a764000081565b60008061008685846100af565b90508381101561009a5760009150506100a8565b6100a48185610175565b9150505b9392505050565b60008215806100bc575081155b156100c95750600061016f565b816100d760026127106101c3565b6100e3906000196101e5565b6100ed91906101c3565b8311156101405760405162461bcd60e51b815260206004820152601760248201527f4d554c5449504c49434154494f4e5f4f564552464c4f57000000000000000000604482015260640160405180910390fd5b61271061014e6002826101c3565b61015884866101fc565b610162919061021b565b61016c91906101c3565b90505b92915050565b600061016c82846101e5565b60008060006060848603121561019657600080fd5b505081359360208301359350604090920135919050565b634e487b7160e01b600052601160045260246000fd5b6000826101e057634e487b7160e01b600052601260045260246000fd5b500490565b6000828210156101f7576101f76101ad565b500390565b6000816000190483118215151615610216576102166101ad565b500290565b6000821982111561022e5761022e6101ad565b50019056fea26469706673582212200dc751091226b129135a70d99946bae9cba23963d9baa172846604c616d57f7664736f6c63430008090033",
  "devdoc": {
    "kind": "dev",
    "methods": {
      "calculateAvailableBorrow(uint256,uint256,uint256)": {
        "details": "Calculates the equivalent amount in ETH that an user can borrow, depending on the available collateral and the average Loan To Value",
        "params": {
          "ltv": "The loan to value",
          "totalCollateral": "The total SFT amount as collateral",
          "totalDebt": "The total borrow balance"
        },
        "returns": {
          "_0": "the amount available FIL to borrow for the user*"
        }
      }
    },
    "version": 1
  },
  "userdoc": {
    "kind": "user",
    "methods": {},
    "version": 1
  },
  "storageLayout": {
    "storage": [],
    "types": null
  }
}