{
  "address": "0x81a1A58925e9e95e7b8E51054Fb27aAaaaF2499e",
  "abi": [
    {
      "anonymous": false,
      "inputs": [
        {
          "indexed": false,
          "internalType": "address",
          "name": "user",
          "type": "address"
        },
        {
          "indexed": false,
          "internalType": "uint256",
          "name": "amount",
          "type": "uint256"
        },
        {
          "indexed": false,
          "internalType": "uint256",
          "name": "borrowRate",
          "type": "uint256"
        }
      ],
      "name": "Borrow",
      "type": "event"
    },
    {
      "anonymous": false,
      "inputs": [
        {
          "indexed": false,
          "internalType": "address",
          "name": "user",
          "type": "address"
        },
        {
          "indexed": false,
          "internalType": "uint256",
          "name": "amount",
          "type": "uint256"
        }
      ],
      "name": "ClaimReward",
      "type": "event"
    },
    {
      "anonymous": false,
      "inputs": [
        {
          "indexed": false,
          "internalType": "address",
          "name": "user",
          "type": "address"
        },
        {
          "indexed": true,
          "internalType": "address",
          "name": "onBehalfOf",
          "type": "address"
        },
        {
          "indexed": false,
          "internalType": "uint256",
          "name": "amount",
          "type": "uint256"
        }
      ],
      "name": "Deposit",
      "type": "event"
    },
    {
      "anonymous": false,
      "inputs": [
        {
          "indexed": false,
          "internalType": "address",
          "name": "distributor",
          "type": "address"
        },
        {
          "indexed": false,
          "internalType": "address",
          "name": "user",
          "type": "address"
        },
        {
          "indexed": false,
          "internalType": "uint256",
          "name": "amount",
          "type": "uint256"
        }
      ],
      "name": "DistributeSingleReward",
      "type": "event"
    },
    {
      "anonymous": false,
      "inputs": [
        {
          "indexed": false,
          "internalType": "uint8",
          "name": "version",
          "type": "uint8"
        }
      ],
      "name": "Initialized",
      "type": "event"
    },
    {
      "anonymous": false,
      "inputs": [
        {
          "indexed": false,
          "internalType": "address",
          "name": "liquidator",
          "type": "address"
        },
        {
          "indexed": true,
          "internalType": "address",
          "name": "user",
          "type": "address"
        },
        {
          "indexed": false,
          "internalType": "uint256",
          "name": "totalDebt",
          "type": "uint256"
        },
        {
          "indexed": false,
          "internalType": "uint256",
          "name": "totalCollteral",
          "type": "uint256"
        }
      ],
      "name": "Liquidate",
      "type": "event"
    },
    {
      "anonymous": false,
      "inputs": [
        {
          "indexed": true,
          "internalType": "address",
          "name": "previousOwner",
          "type": "address"
        },
        {
          "indexed": true,
          "internalType": "address",
          "name": "newOwner",
          "type": "address"
        }
      ],
      "name": "OwnershipTransferStarted",
      "type": "event"
    },
    {
      "anonymous": false,
      "inputs": [
        {
          "indexed": true,
          "internalType": "address",
          "name": "previousOwner",
          "type": "address"
        },
        {
          "indexed": true,
          "internalType": "address",
          "name": "newOwner",
          "type": "address"
        }
      ],
      "name": "OwnershipTransferred",
      "type": "event"
    },
    {
      "anonymous": false,
      "inputs": [
        {
          "indexed": false,
          "internalType": "address",
          "name": "user",
          "type": "address"
        },
        {
          "indexed": true,
          "internalType": "address",
          "name": "onBehalfOf",
          "type": "address"
        },
        {
          "indexed": false,
          "internalType": "uint256",
          "name": "amount",
          "type": "uint256"
        }
      ],
      "name": "Pledge",
      "type": "event"
    },
    {
      "anonymous": false,
      "inputs": [
        {
          "indexed": true,
          "internalType": "address",
          "name": "user",
          "type": "address"
        },
        {
          "indexed": true,
          "internalType": "address",
          "name": "onBehalfOf",
          "type": "address"
        },
        {
          "indexed": false,
          "internalType": "uint256",
          "name": "paybackAmount",
          "type": "uint256"
        },
        {
          "indexed": false,
          "internalType": "uint256",
          "name": "rewardsToRepay",
          "type": "uint256"
        },
        {
          "indexed": false,
          "internalType": "uint256",
          "name": "margin",
          "type": "uint256"
        }
      ],
      "name": "Repay",
      "type": "event"
    },
    {
      "anonymous": false,
      "inputs": [
        {
          "indexed": false,
          "internalType": "address",
          "name": "oldDistributor",
          "type": "address"
        },
        {
          "indexed": false,
          "internalType": "address",
          "name": "newDistributor",
          "type": "address"
        }
      ],
      "name": "SetDistributor",
      "type": "event"
    },
    {
      "anonymous": false,
      "inputs": [
        {
          "indexed": false,
          "internalType": "address",
          "name": "oldInterestRateStrategyAddress",
          "type": "address"
        },
        {
          "indexed": false,
          "internalType": "address",
          "name": "newInterestRateStrategyAddress",
          "type": "address"
        }
      ],
      "name": "SetInterestRateStrategyAddress",
      "type": "event"
    },
    {
      "anonymous": false,
      "inputs": [
        {
          "indexed": false,
          "internalType": "uint16",
          "name": "oldReserveFactor",
          "type": "uint16"
        },
        {
          "indexed": false,
          "internalType": "uint16",
          "name": "newReserveFactor",
          "type": "uint16"
        }
      ],
      "name": "SetReserveFactor",
      "type": "event"
    },
    {
      "anonymous": false,
      "inputs": [
        {
          "indexed": false,
          "internalType": "address",
          "name": "user",
          "type": "address"
        },
        {
          "indexed": false,
          "internalType": "uint256",
          "name": "amount",
          "type": "uint256"
        }
      ],
      "name": "Unpledge",
      "type": "event"
    },
    {
      "anonymous": false,
      "inputs": [
        {
          "indexed": true,
          "internalType": "address",
          "name": "user",
          "type": "address"
        },
        {
          "indexed": true,
          "internalType": "address",
          "name": "to",
          "type": "address"
        },
        {
          "indexed": false,
          "internalType": "uint256",
          "name": "amount",
          "type": "uint256"
        }
      ],
      "name": "Withdraw",
      "type": "event"
    },
    {
      "inputs": [],
      "name": "HEALTH_FACTOR_LIQUIDATION_THRESHOLD",
      "outputs": [
        {
          "internalType": "uint256",
          "name": "",
          "type": "uint256"
        }
      ],
      "stateMutability": "view",
      "type": "function"
    },
    {
      "inputs": [],
      "name": "RAY",
      "outputs": [
        {
          "internalType": "uint256",
          "name": "",
          "type": "uint256"
        }
      ],
      "stateMutability": "view",
      "type": "function"
    },
    {
      "inputs": [],
      "name": "acceptOwnership",
      "outputs": [],
      "stateMutability": "nonpayable",
      "type": "function"
    },
    {
      "inputs": [
        {
          "internalType": "uint256",
          "name": "amount",
          "type": "uint256"
        }
      ],
      "name": "borrow",
      "outputs": [],
      "stateMutability": "nonpayable",
      "type": "function"
    },
    {
      "inputs": [],
      "name": "claimReward",
      "outputs": [],
      "stateMutability": "nonpayable",
      "type": "function"
    },
    {
      "inputs": [
        {
          "internalType": "uint256",
          "name": "amount",
          "type": "uint256"
        },
        {
          "internalType": "address",
          "name": "onBehalfOf",
          "type": "address"
        }
      ],
      "name": "deposit",
      "outputs": [],
      "stateMutability": "nonpayable",
      "type": "function"
    },
    {
      "inputs": [
        {
          "internalType": "address[]",
          "name": "userList",
          "type": "address[]"
        },
        {
          "internalType": "uint256[]",
          "name": "rewardList",
          "type": "uint256[]"
        },
        {
          "internalType": "uint256",
          "name": "totalRewards",
          "type": "uint256"
        }
      ],
      "name": "distributeReward",
      "outputs": [],
      "stateMutability": "nonpayable",
      "type": "function"
    },
    {
      "inputs": [],
      "name": "distributor",
      "outputs": [
        {
          "internalType": "address",
          "name": "",
          "type": "address"
        }
      ],
      "stateMutability": "view",
      "type": "function"
    },
    {
      "inputs": [],
      "name": "filToken",
      "outputs": [
        {
          "internalType": "address",
          "name": "",
          "type": "address"
        }
      ],
      "stateMutability": "view",
      "type": "function"
    },
    {
      "inputs": [
        {
          "internalType": "address",
          "name": "user",
          "type": "address"
        }
      ],
      "name": "getMaxUnpledgeAmount",
      "outputs": [
        {
          "internalType": "uint256",
          "name": "maxUnpledgeAmount",
          "type": "uint256"
        }
      ],
      "stateMutability": "view",
      "type": "function"
    },
    {
      "inputs": [],
      "name": "getReserveData",
      "outputs": [
        {
          "components": [
            {
              "internalType": "uint128",
              "name": "liquidityIndex",
              "type": "uint128"
            },
            {
              "internalType": "uint128",
              "name": "variableBorrowIndex",
              "type": "uint128"
            },
            {
              "internalType": "uint128",
              "name": "currentLiquidityRate",
              "type": "uint128"
            },
            {
              "internalType": "uint128",
              "name": "currentVariableBorrowRate",
              "type": "uint128"
            },
            {
              "internalType": "uint40",
              "name": "lastUpdateTimestamp",
              "type": "uint40"
            },
            {
              "internalType": "uint16",
              "name": "reserveFactor",
              "type": "uint16"
            },
            {
              "internalType": "uint16",
              "name": "ltv",
              "type": "uint16"
            },
            {
              "internalType": "uint16",
              "name": "liquidationThreshold",
              "type": "uint16"
            },
            {
              "internalType": "address",
              "name": "sFilTokenAddress",
              "type": "address"
            },
            {
              "internalType": "address",
              "name": "variableDebtTokenAddress",
              "type": "address"
            },
            {
              "internalType": "address",
              "name": "interestRateStrategyAddress",
              "type": "address"
            }
          ],
          "internalType": "struct DataTypes.ReserveData",
          "name": "",
          "type": "tuple"
        }
      ],
      "stateMutability": "view",
      "type": "function"
    },
    {
      "inputs": [],
      "name": "getReserveNormalizedIncome",
      "outputs": [
        {
          "internalType": "uint256",
          "name": "",
          "type": "uint256"
        }
      ],
      "stateMutability": "view",
      "type": "function"
    },
    {
      "inputs": [],
      "name": "getReserveNormalizedVariableDebt",
      "outputs": [
        {
          "internalType": "uint256",
          "name": "",
          "type": "uint256"
        }
      ],
      "stateMutability": "view",
      "type": "function"
    },
    {
      "inputs": [
        {
          "internalType": "address",
          "name": "user",
          "type": "address"
        }
      ],
      "name": "getUserAccountData",
      "outputs": [
        {
          "internalType": "uint256",
          "name": "totalCollateral",
          "type": "uint256"
        },
        {
          "internalType": "uint256",
          "name": "totalDebt",
          "type": "uint256"
        },
        {
          "internalType": "uint256",
          "name": "availableBorrows",
          "type": "uint256"
        },
        {
          "internalType": "uint256",
          "name": "healthFactor",
          "type": "uint256"
        }
      ],
      "stateMutability": "view",
      "type": "function"
    },
    {
      "inputs": [],
      "name": "getUtilizationRate",
      "outputs": [
        {
          "internalType": "uint256",
          "name": "utilizationRate",
          "type": "uint256"
        }
      ],
      "stateMutability": "view",
      "type": "function"
    },
    {
      "inputs": [
        {
          "internalType": "address",
          "name": "_filToken",
          "type": "address"
        },
        {
          "internalType": "address",
          "name": "_sftToken",
          "type": "address"
        },
        {
          "internalType": "address",
          "name": "_distributor",
          "type": "address"
        },
        {
          "internalType": "address",
          "name": "_sFilTokenAddress",
          "type": "address"
        },
        {
          "internalType": "address",
          "name": "_variableDebtTokenAddress",
          "type": "address"
        },
        {
          "internalType": "address",
          "name": "_interestRateStrategyAddress",
          "type": "address"
        },
        {
          "internalType": "uint16",
          "name": "_reserveFactor",
          "type": "uint16"
        },
        {
          "internalType": "uint16",
          "name": "_ltv",
          "type": "uint16"
        },
        {
          "internalType": "uint16",
          "name": "_liquidationThreshold",
          "type": "uint16"
        }
      ],
      "name": "initialize",
      "outputs": [],
      "stateMutability": "nonpayable",
      "type": "function"
    },
    {
      "inputs": [
        {
          "internalType": "address",
          "name": "user",
          "type": "address"
        }
      ],
      "name": "liquidate",
      "outputs": [],
      "stateMutability": "nonpayable",
      "type": "function"
    },
    {
      "inputs": [],
      "name": "owner",
      "outputs": [
        {
          "internalType": "address",
          "name": "",
          "type": "address"
        }
      ],
      "stateMutability": "view",
      "type": "function"
    },
    {
      "inputs": [],
      "name": "pendingOwner",
      "outputs": [
        {
          "internalType": "address",
          "name": "",
          "type": "address"
        }
      ],
      "stateMutability": "view",
      "type": "function"
    },
    {
      "inputs": [
        {
          "internalType": "uint256",
          "name": "amount",
          "type": "uint256"
        },
        {
          "internalType": "address",
          "name": "onBehalfOf",
          "type": "address"
        }
      ],
      "name": "pledge",
      "outputs": [],
      "stateMutability": "nonpayable",
      "type": "function"
    },
    {
      "inputs": [
        {
          "internalType": "address",
          "name": "",
          "type": "address"
        }
      ],
      "name": "pledges",
      "outputs": [
        {
          "internalType": "uint256",
          "name": "",
          "type": "uint256"
        }
      ],
      "stateMutability": "view",
      "type": "function"
    },
    {
      "inputs": [],
      "name": "renounceOwnership",
      "outputs": [],
      "stateMutability": "nonpayable",
      "type": "function"
    },
    {
      "inputs": [
        {
          "internalType": "uint256",
          "name": "amount",
          "type": "uint256"
        },
        {
          "internalType": "address",
          "name": "onBehalfOf",
          "type": "address"
        }
      ],
      "name": "repay",
      "outputs": [
        {
          "internalType": "uint256",
          "name": "",
          "type": "uint256"
        }
      ],
      "stateMutability": "nonpayable",
      "type": "function"
    },
    {
      "inputs": [],
      "name": "reserve",
      "outputs": [
        {
          "internalType": "uint128",
          "name": "liquidityIndex",
          "type": "uint128"
        },
        {
          "internalType": "uint128",
          "name": "variableBorrowIndex",
          "type": "uint128"
        },
        {
          "internalType": "uint128",
          "name": "currentLiquidityRate",
          "type": "uint128"
        },
        {
          "internalType": "uint128",
          "name": "currentVariableBorrowRate",
          "type": "uint128"
        },
        {
          "internalType": "uint40",
          "name": "lastUpdateTimestamp",
          "type": "uint40"
        },
        {
          "internalType": "uint16",
          "name": "reserveFactor",
          "type": "uint16"
        },
        {
          "internalType": "uint16",
          "name": "ltv",
          "type": "uint16"
        },
        {
          "internalType": "uint16",
          "name": "liquidationThreshold",
          "type": "uint16"
        },
        {
          "internalType": "address",
          "name": "sFilTokenAddress",
          "type": "address"
        },
        {
          "internalType": "address",
          "name": "variableDebtTokenAddress",
          "type": "address"
        },
        {
          "internalType": "address",
          "name": "interestRateStrategyAddress",
          "type": "address"
        }
      ],
      "stateMutability": "view",
      "type": "function"
    },
    {
      "inputs": [
        {
          "internalType": "address",
          "name": "",
          "type": "address"
        }
      ],
      "name": "rewards",
      "outputs": [
        {
          "internalType": "uint256",
          "name": "",
          "type": "uint256"
        }
      ],
      "stateMutability": "view",
      "type": "function"
    },
    {
      "inputs": [
        {
          "internalType": "address",
          "name": "newDistributor",
          "type": "address"
        }
      ],
      "name": "setDistributor",
      "outputs": [],
      "stateMutability": "nonpayable",
      "type": "function"
    },
    {
      "inputs": [
        {
          "internalType": "address",
          "name": "newInterestRateStrategyAddress",
          "type": "address"
        }
      ],
      "name": "setInterestRateStrategyAddress",
      "outputs": [],
      "stateMutability": "nonpayable",
      "type": "function"
    },
    {
      "inputs": [
        {
          "internalType": "uint16",
          "name": "newReserveFactor",
          "type": "uint16"
        }
      ],
      "name": "setReserveFactor",
      "outputs": [],
      "stateMutability": "nonpayable",
      "type": "function"
    },
    {
      "inputs": [],
      "name": "sftToken",
      "outputs": [
        {
          "internalType": "address",
          "name": "",
          "type": "address"
        }
      ],
      "stateMutability": "view",
      "type": "function"
    },
    {
      "inputs": [
        {
          "internalType": "address",
          "name": "newOwner",
          "type": "address"
        }
      ],
      "name": "transferOwnership",
      "outputs": [],
      "stateMutability": "nonpayable",
      "type": "function"
    },
    {
      "inputs": [
        {
          "internalType": "uint256",
          "name": "amount",
          "type": "uint256"
        }
      ],
      "name": "unpledge",
      "outputs": [],
      "stateMutability": "nonpayable",
      "type": "function"
    },
    {
      "inputs": [
        {
          "internalType": "address",
          "name": "newTreasuryAddress",
          "type": "address"
        }
      ],
      "name": "updateTreasuryAddress",
      "outputs": [],
      "stateMutability": "nonpayable",
      "type": "function"
    },
    {
      "inputs": [
        {
          "internalType": "uint256",
          "name": "amount",
          "type": "uint256"
        },
        {
          "internalType": "address",
          "name": "to",
          "type": "address"
        }
      ],
      "name": "withdraw",
      "outputs": [
        {
          "internalType": "uint256",
          "name": "",
          "type": "uint256"
        }
      ],
      "stateMutability": "nonpayable",
      "type": "function"
    }
  ],
  "transactionHash": "0xca25a216c6069370c2c436ffda2e0aea16fed9fe4a2d780dda82201758835ec8",
  "args": [],
  "numDeployments": 1,
  "solcInputHash": "c1c96c2645a542398b32a9238f997f11",
  "bytecode": "0x608060405234801561001057600080fd5b506136ac806100206000396000f3fe608060405234801561001057600080fd5b50600436106101fa5760003560e01c80638e18d6481161011a578063c5ebeaec116100ad578063deb4476f1161007c578063deb4476f14610627578063df4f1f011461063a578063e30c39781461064d578063f2fde38b1461065e578063feb7bb571461067157600080fd5b8063c5ebeaec146104f2578063c7258ba614610505578063cd3293de14610518578063d5fc44bf1461061457600080fd5b8063b88a802f116100e9578063b88a802f14610495578063bf92857c1461049d578063bfe10928146104d0578063c3525c28146104e357600080fd5b80638e18d648146104545780638ea0b3781461046757806396c2614c1461047a578063acb708151461048257600080fd5b806357b095bb1161019257806375619ab51161016157806375619ab51461040157806379ba509714610414578063841e45611461041c5780638da5cb5b1461042f57600080fd5b806357b095bb146103c057806361f1ce63146103d35780636e553f65146103e6578063715018a6146103f957600080fd5b80632f865568116101ce5780632f86556814610372578063343576f5146103855780634a417a53146103a5578063552033c4146103ad57600080fd5b8062f714ce146101ff57806305bef05e146102255780630700037d1461033d5780630c5e9f731461035d575b600080fd5b61021261020d36600461314d565b610679565b6040519081526020015b60405180910390f35b6103306040805161016081018252600080825260208201819052918101829052606081018290526080810182905260a0810182905260c0810182905260e0810182905261010081018290526101208101829052610140810191909152506040805161016081018252609a546001600160801b038082168352600160801b9182900481166020840152609b548082169484019490945292049091166060820152609c5464ffffffffff8116608083015261ffff600160281b8204811660a0840152600160381b8204811660c0840152600160481b82041660e08301526001600160a01b03600160581b9091048116610100830152609d548116610120830152609e541661014082015290565b60405161021c9190613179565b61021261034b366004613270565b60a06020526000908152604090205481565b61037061036b36600461329d565b610803565b005b610370610380366004613270565b610c16565b610212610393366004613270565b609f6020526000908152604090205481565b610212610d8b565b6102126b033b2e3c9fd0803ce800000081565b6103706103ce36600461314d565b610ece565b6103706103e1366004613270565b611119565b6103706103f436600461314d565b61112d565b610370611234565b61037061040f366004613270565b611248565b610370611259565b61037061042a366004613270565b6112d0565b6033546001600160a01b03165b6040516001600160a01b03909116815260200161021c565b60975461043c906001600160a01b031681565b610370610475366004613345565b611342565b610212611353565b61021261049036600461314d565b611364565b61037061173d565b6104b06104ab366004613270565b61189a565b60408051948552602085019390935291830152606082015260800161021c565b60995461043c906001600160a01b031681565b610212670de0b6b3a764000081565b610370610500366004613360565b6119f6565b610370610513366004613360565b611be1565b609a54609b54609c54609d54609e54610595946001600160801b0380821695600160801b9283900482169581831695939091049091169264ffffffffff82169261ffff600160281b8404811693600160381b8104821693600160481b8204909216926001600160a01b03600160581b90920482169290821691168b565b604080516001600160801b039c8d1681529a8c1660208c0152988b16988a019890985298909516606088015264ffffffffff909316608087015261ffff91821660a0870152811660c08601521660e08401526001600160a01b03908116610100840152928316610120830152919091166101408201526101600161021c565b60985461043c906001600160a01b031681565b610212610635366004613270565b611caf565b6103706106483660046133c5565b611cfd565b6065546001600160a01b031661043c565b61037061066c366004613270565b612082565b6102126120f3565b609c546040516370a0823160e01b8152336004820152600091600160581b90046001600160a01b031690829082906370a082319060240160206040518083038186803b1580156106c857600080fd5b505afa1580156106dc573d6000803e3d6000fd5b505050506040513d601f19601f820116820180604052508101906107009190613439565b90506000818610156107125785610714565b815b9050610720609a6120ff565b60975461073c90609a906001600160a01b0316856000856121ce565b609a54604051636b81068560e11b81523360048201526001600160a01b038781166024830152604482018490526001600160801b0390921660648201529084169063d7020d0a90608401600060405180830381600087803b1580156107a057600080fd5b505af11580156107b4573d6000803e3d6000fd5b50506040518381526001600160a01b03881692503391507f9b1bfa7fa9ee420a16e124f794c35ac9f90472acc99140eb2f6447c714cad8eb9060200160405180910390a3925050505b92915050565b600054610100900460ff16158080156108235750600054600160ff909116105b8061083d5750303b15801561083d575060005460ff166001145b6108a55760405162461bcd60e51b815260206004820152602e60248201527f496e697469616c697a61626c653a20636f6e747261637420697320616c72656160448201526d191e481a5b9a5d1a585b1a5e995960921b60648201526084015b60405180910390fd5b6000805460ff1916600117905580156108c8576000805461ff0019166101001790555b6001600160a01b038a1661091e5760405162461bcd60e51b815260206004820181905260248201527f66696c20746f6b656e20616464726573732063616e6e6f74206265207a65726f604482015260640161089c565b6001600160a01b0389166109745760405162461bcd60e51b815260206004820181905260248201527f53465420746f6b656e20616464726573732063616e6e6f74206265207a65726f604482015260640161089c565b6001600160a01b0387166109d45760405162461bcd60e51b815260206004820152602160248201527f7346696c20746f6b656e20616464726573732063616e6e6f74206265207a65726044820152606f60f81b606482015260840161089c565b6001600160a01b038616610a3c5760405162461bcd60e51b815260206004820152602960248201527f7661726961626c654465627420746f6b656e20616464726573732063616e6e6f60448201526874206265207a65726f60b81b606482015260840161089c565b6001600160a01b038516610aa65760405162461bcd60e51b815260206004820152602b60248201527f696e74657265737452617465537472617465677920616464726573732063616e60448201526a6e6f74206265207a65726f60a81b606482015260840161089c565b610aae612491565b610ab66124b8565b609780546001600160a01b03808d166001600160a01b03199283161790925560988054928c1692909116919091179055610aef886124e8565b609c8054609d80546001600160a01b038a81166001600160a01b031992831617909255609e80548a8416921691909117905561ffff858116600160481b026affff00000000000000000019888316600160381b02166affffffff0000000000000019928a16600160281b0266ffff000000000019948e16600160581b02949094167fff0000000000000000000000000000000000000000ffffffff0000ffffffffff909516949094179290921716919091171790557b033b2e3c9fd0803ce800000000000000033b2e3c9fd0803ce8000000609a558015610c0a576000805461ff0019169055604051600181527f7f26b83ff96e1f2b6a682f133852f6798a09c465da95921460cefb38474024989060200160405180910390a15b50505050505050505050565b600080610c228361189a565b935050925050670de0b6b3a76400008110610c7f5760405162461bcd60e51b815260206004820152601d60248201527f4845414c54485f464143544f525f41424f56455f5448524553484f4c44000000604482015260640161089c565b6001600160a01b0383166000908152609f6020526040902054610ca28385611364565b5060985460405163a9059cbb60e01b8152336004820152602481018390526001600160a01b039091169063a9059cbb90604401602060405180830381600087803b158015610cef57600080fd5b505af1158015610d03573d6000803e3d6000fd5b505050506040513d601f19601f82011682018060405250810190610d279190613452565b506001600160a01b0384166000818152609f602090815260408083209290925581513381529081018690529081018390527ff3fa0eaee8f258c23b013654df25d1527f98a5c7ccd5e951dd77caca400ef9729060600160405180910390a250505050565b600080609a60030160009054906101000a90046001600160a01b03166001600160a01b03166318160ddd6040518163ffffffff1660e01b815260040160206040518083038186803b158015610ddf57600080fd5b505afa158015610df3573d6000803e3d6000fd5b505050506040513d601f19601f82011682018060405250810190610e179190613439565b609754609c546040516370a0823160e01b81526001600160a01b03600160581b909204821660048201529293506000929116906370a082319060240160206040518083038186803b158015610e6b57600080fd5b505afa158015610e7f573d6000803e3d6000fd5b505050506040513d601f19601f82011682018060405250810190610ea39190613439565b90508115610ec457610eb5818361348a565b610ebf90836134a2565b610ec7565b60005b9250505090565b609854604051636eb1769f60e11b815233600482015230602482015283916001600160a01b03169063dd62ed3e9060440160206040518083038186803b158015610f1757600080fd5b505afa158015610f2b573d6000803e3d6000fd5b505050506040513d601f19601f82011682018060405250810190610f4f9190613439565b1015610f965760405162461bcd60e51b81526020600482015260166024820152750a68ca8be82a0a0a49eac8abe9c9ea8be8a9c9eaa8e960531b604482015260640161089c565b6098546040516370a0823160e01b815233600482015283916001600160a01b0316906370a082319060240160206040518083038186803b158015610fd957600080fd5b505afa158015610fed573d6000803e3d6000fd5b505050506040513d601f19601f820116820180604052508101906110119190613439565b10156110585760405162461bcd60e51b81526020600482015260166024820152750a68ca8be848298829c868abe9c9ea8be8a9c9eaa8e960531b604482015260640161089c565b611062609a6120ff565b609754609c5461108c91609a916001600160a01b0391821691600160581b909104166000806121ce565b6098546110a4906001600160a01b0316333085612551565b6001600160a01b0381166000908152609f6020526040812080548492906110cc90849061348a565b909155505060408051338152602081018490526001600160a01b038316917f4a11de2114caf219af6f0e61dd164f13fdec022651f707d5ffcd3bbc37e1f254910160405180910390a25050565b6111216125c2565b61112a8161261c565b50565b609c54600160581b90046001600160a01b031661114a609a6120ff565b60975461116690609a906001600160a01b0316838660006121ce565b60975461117e906001600160a01b0316338386612551565b609a54604051630ab714fb60e11b81526001600160a01b0383169163156e29f6916111b991869188916001600160801b0316906004016134c4565b600060405180830381600087803b1580156111d357600080fd5b505af11580156111e7573d6000803e3d6000fd5b505060408051338152602081018790526001600160a01b03861693507f5548c837ab068cf56a2c2479df0882a4922fd203edb7517321831d95078c5f6292500160405180910390a2505050565b61123c6125c2565b6112466000612685565b565b6112506125c2565b61112a816124e8565b60655433906001600160a01b031681146112c75760405162461bcd60e51b815260206004820152602960248201527f4f776e61626c6532537465703a2063616c6c6572206973206e6f7420746865206044820152683732bb9037bbb732b960b91b606482015260840161089c565b61112a81612685565b6112d86125c2565b609c5460405163841e456160e01b81526001600160a01b038381166004830152600160581b9092049091169063841e456190602401600060405180830381600087803b15801561132757600080fd5b505af115801561133b573d6000803e3d6000fd5b5050505050565b61134a6125c2565b61112a8161269e565b600061135f609a61270b565b905090565b609d546040516370a0823160e01b81526001600160a01b03838116600483015260009283928392909116906370a082319060240160206040518083038186803b1580156113b057600080fd5b505afa1580156113c4573d6000803e3d6000fd5b505050506040513d601f19601f820116820180604052508101906113e89190613439565b33600090815260a06020526040812054919250828710611408578261140a565b865b905060008183101561141c578261141e565b815b905061142a81836134ee565b609754604051636eb1769f60e11b815233600482015230602482015291965086916001600160a01b039091169063dd62ed3e9060440160206040518083038186803b15801561147857600080fd5b505afa15801561148c573d6000803e3d6000fd5b505050506040513d601f19601f820116820180604052508101906114b09190613439565b10156114fe5760405162461bcd60e51b815260206004820152601860248201527f46494c5f414c4c4f57414e43455f4e4f545f454e4f5547480000000000000000604482015260640161089c565b6097546040516370a0823160e01b815233600482015286916001600160a01b0316906370a082319060240160206040518083038186803b15801561154157600080fd5b505afa158015611555573d6000803e3d6000fd5b505050506040513d601f19601f820116820180604052508101906115799190613439565b10156115c05760405162461bcd60e51b815260206004820152601660248201527508c9298be848298829c868abe9c9ea8be8a9c9eaa8e960531b604482015260640161089c565b6115ca609a6120ff565b609d54609a54604051637a94c56560e11b81526001600160a01b039092169163f5298aca91611611918b918791600160801b9091046001600160801b0316906004016134c4565b600060405180830381600087803b15801561162b57600080fd5b505af115801561163f573d6000803e3d6000fd5b5050609c546097546001600160a01b03600160581b9092048216935061166d9250609a9116838660006121ce565b851561169957609c54609754611699916001600160a01b03918216913391600160581b90041689612551565b33600090815260a06020526040812080548492906116b89084906134ee565b9091555050609c546097546116e2916001600160a01b0391821691600160581b909104168461275a565b60408051848152602081018490529081018790526001600160a01b0389169033907fd6a068ae75f1025380f00b7a1476f705bae3c3644640cf62b857f8d02ace826e9060600160405180910390a35090979650505050505050565b336000908152609f60205260409020541561179a5760405162461bcd60e51b815260206004820152601b60248201527f4d5553545f554e504c4547455f414c4c5f434f4c4c41544552414c0000000000604482015260640161089c565b33600090815260a06020526040908190205460975491516370a0823160e01b8152306004820152909182916001600160a01b03909116906370a082319060240160206040518083038186803b1580156117f257600080fd5b505afa158015611806573d6000803e3d6000fd5b505050506040513d601f19601f8201168201806040525081019061182a9190613439565b101561183557600080fd5b33600081815260a0602052604081205560975461185e916001600160a01b03909116908361275a565b60408051338152602081018390527fba8de60c3403ec381d1d484652ea1980e3c3e56359195c92525bff4ce47ad98e910160405180910390a150565b6001600160a01b038181166000818152609f602052604080822054609d5491516370a0823160e01b815260048101949094529391928392839216906370a082319060240160206040518083038186803b1580156118f657600080fd5b505afa15801561190a573d6000803e3d6000fd5b505050506040513d601f19601f8201168201806040525081019061192e9190613439565b609c54604051631a6d1d7b60e01b81526004810187905260248101839052600160381b90910461ffff16604482015290935073F2d02e288Bb28D7dbB3FbBb2a4876199A98A06d190631a6d1d7b9060640160206040518083038186803b15801561199757600080fd5b505af41580156119ab573d6000803e3d6000fd5b505050506040513d601f19601f820116820180604052508101906119cf9190613439565b609c549092506119ed9085908590600160481b900461ffff1661278f565b90509193509193565b6000611a013361189a565b509250505081811015611a565760405162461bcd60e51b815260206004820152601c60248201527f415641494c41424c455f424f52524f57535f4e4f545f454e4f55474800000000604482015260640161089c565b611a60609a6120ff565b609d54609a54604051630ab714fb60e11b81526001600160a01b039092169163156e29f691611aa79133918791600160801b9091046001600160801b0316906004016134c4565b600060405180830381600087803b158015611ac157600080fd5b505af1158015611ad5573d6000803e3d6000fd5b5050609754609c54611b039350609a92506001600160a01b0391821691600160581b909104166000866121ce565b609c54604051634efecaa560e01b815233600482015260248101849052600160581b9091046001600160a01b031690634efecaa590604401602060405180830381600087803b158015611b5557600080fd5b505af1158015611b69573d6000803e3d6000fd5b505050506040513d601f19601f82011682018060405250810190611b8d9190613439565b50609b546040517fe1979fe4c35e0cef342fef5668e2c8e7a7e9f5d5d1ca8fee0ac6c427fa4153af91611bd59133918691600160801b9091046001600160801b0316906134c4565b60405180910390a15050565b6000611bec33611caf565b9050600081831015611bfe5782611c00565b815b9050611c0c609a6120ff565b609754609c54611c3691609a916001600160a01b0391821691600160581b909104166000806121ce565b336000908152609f602052604081208054839290611c559084906134ee565b9091555050609854611c71906001600160a01b0316338361275a565b60408051338152602081018390527f0cdb7e259318c69f16c8770399e09f5531befac5033bf7c447e3bc2961169295910160405180910390a1505050565b6000806000611cbd8461189a565b50509150915080600014611cf357609c54611ce4908290600160381b900461ffff166127bd565b611cee90836134ee565b611cf5565b815b949350505050565b6099546001600160a01b03163314611d575760405162461bcd60e51b815260206004820152601960248201527f4f4e4c595f4449535452494255544f525f43414e5f43414c4c00000000000000604482015260640161089c565b838214611d985760405162461bcd60e51b815260206004820152600f60248201526e494e434f52524543545f504152414d60881b604482015260640161089c565b609754604051636eb1769f60e11b815233600482015230602482015282916001600160a01b03169063dd62ed3e9060440160206040518083038186803b158015611de157600080fd5b505afa158015611df5573d6000803e3d6000fd5b505050506040513d601f19601f82011682018060405250810190611e199190613439565b1015611e675760405162461bcd60e51b815260206004820152601c60248201527f46494c5f544f4b454e5f415050524f56455f4e4f545f454e4f55474800000000604482015260640161089c565b6097546040516370a0823160e01b815233600482015282916001600160a01b0316906370a082319060240160206040518083038186803b158015611eaa57600080fd5b505afa158015611ebe573d6000803e3d6000fd5b505050506040513d601f19601f82011682018060405250810190611ee29190613439565b1015611f305760405162461bcd60e51b815260206004820152601c60248201527f46494c5f544f4b454e5f42414c414e43455f4e4f545f454e4f55474800000000604482015260640161089c565b60005b8481101561206957838382818110611f4d57611f4d613505565b9050602002013560a06000888885818110611f6a57611f6a613505565b9050602002016020810190611f7f9190613270565b6001600160a01b03166001600160a01b031681526020019081526020016000206000828254611fae919061348a565b90915550506099547f2e379e1e638f7b6d5ab413f9073818455805462de4aa4e33798c9ed1ac7afd91906001600160a01b0316878784818110611ff357611ff3613505565b90506020020160208101906120089190613270565b86868581811061201a5761201a613505565b9050602002013560405161204f939291906001600160a01b039384168152919092166020820152604081019190915260600190565b60405180910390a1806120618161351b565b915050611f33565b5060975461133b906001600160a01b0316333084612551565b61208a6125c2565b606580546001600160a01b0383166001600160a01b031990911681179091556120bb6033546001600160a01b031690565b6001600160a01b03167f38d16b8cac22d99fc7c124b9cd0de2d3fa1faef420bfe791d8c362d765e2270060405160405180910390a350565b600061135f609a61286d565b60038101546040805163b1bf962d60e01b815290516000926001600160a01b03169163b1bf962d916004808301926020929190829003018186803b15801561214657600080fd5b505afa15801561215a573d6000803e3d6000fd5b505050506040513d601f19601f8201168201806040525081019061217e9190613439565b825460028401549192506001600160801b03600160801b820481169291169064ffffffffff166000806121b487878688876128cc565b915091506121c58787878585612a49565b50505050505050565b6121f96040518060800160405280600081526020016000815260200160008152602001600081525090565b855460038701546040805163b1bf962d60e01b8152905161229293600160801b90046001600160801b0316926001600160a01b03169163b1bf962d916004808301926020929190829003018186803b15801561225457600080fd5b505afa158015612268573d6000803e3d6000fd5b505050506040513d601f19601f8201168201806040525081019061228c9190613439565b90612b60565b6060820181905260048781015460028901546040516340e464b960e11b81526001600160a01b038a811694820194909452888416602482015260448101889052606481018790526084810194909452600160281b900461ffff1660a484015216906381c8c9729060c401604080518083038186803b15801561231357600080fd5b505afa158015612327573d6000803e3d6000fd5b505050506040513d601f19601f8201168201806040525081019061234b9190613536565b6040830152602082018190526001600160801b0310156123ad5760405162461bcd60e51b815260206004820152601760248201527f4c49515549444954595f524154455f4f564552464c4f57000000000000000000604482015260640161089c565b60408101516001600160801b0310156124085760405162461bcd60e51b815260206004820152601d60248201527f5641524941424c455f424f52524f575f524154455f4f564552464c4f57000000604482015260640161089c565b6020818101516040808401516001600160801b03808416600160801b82841681029190911760018d01558b54845195865295850192909252848116848401529304909216606082015290516001600160a01b038716917f4063a2df84b66bb796eb32622851d833e57b2c4292900c18f963af8808b13e35919081900360800190a2505050505050565b600054610100900460ff166112465760405162461bcd60e51b815260040161089c9061355a565b600054610100900460ff166124df5760405162461bcd60e51b815260040161089c9061355a565b61124633612685565b609954604080516001600160a01b03928316815291831660208301527f128323376dda10f736641415ad0e5e8a534e184b01a83f1d15af57c4627480d8910160405180910390a1609980546001600160a01b0319166001600160a01b0392909216919091179055565b6040516001600160a01b03808516602483015283166044820152606481018290526125bc9085906323b872dd60e01b906084015b60408051601f198184030181529190526020810180516001600160e01b03166001600160e01b031990931692909217909152612bfd565b50505050565b6033546001600160a01b031633146112465760405162461bcd60e51b815260206004820181905260248201527f4f776e61626c653a2063616c6c6572206973206e6f7420746865206f776e6572604482015260640161089c565b609e54604080516001600160a01b03928316815291831660208301527f8ae2fc9d7793180dcc54372828b79d8d347e11a6204bddba90ffe2fefbf3a45b910160405180910390a1609e80546001600160a01b0319166001600160a01b0392909216919091179055565b606580546001600160a01b031916905561112a81612cd2565b609c5460408051600160281b90920461ffff9081168352831660208301527f31caec7450620a660d4a01ee15dfa9b50473f532bbca695e0264110405656f69910160405180910390a1609c805461ffff909216600160281b0266ffff000000000019909216919091179055565b600281015460009064ffffffffff908116904216811415612735575050546001600160801b031690565b82546001840154600091611cf5916001600160801b039182169161228c911685612d24565b6040516001600160a01b03831660248201526044810182905261278a90849063a9059cbb60e01b90606401612585565b505050565b60008261279f57506000196127b6565b6127b3836127ad8685612d69565b90612dd4565b90505b9392505050565b6000816128045760405162461bcd60e51b81526020600482015260156024820152744d4154485f4449564953494f4e5f42595f5a45524f60581b604482015260640161089c565b60006128116002846134a2565b9050612710612822826000196134ee565b61282c91906134a2565b84111561284b5760405162461bcd60e51b815260040161089c906135a5565b8281612859612710876135dc565b612863919061348a565b611cf591906134a2565b600281015460009064ffffffffff90811690421681141561289e57505054600160801b90046001600160801b031690565b82546001840154600091611cf5916001600160801b03600160801b9283900481169261228c92041685612e77565b600185015460009081906001600160801b031685858215612a235760006128f38488612d24565b90506128ff818a612b60565b92506001600160801b038311156129585760405162461bcd60e51b815260206004820152601860248201527f4c49515549444954595f494e4445585f4f564552464c4f570000000000000000604482015260640161089c565b8a546fffffffffffffffffffffffffffffffff19166001600160801b038416178b558915612a215760018b01546000906129a290600160801b90046001600160801b031689612e77565b90506129ae818a612b60565b92506001600160801b03831115612a075760405162461bcd60e51b815260206004820152601e60248201527f5641524941424c455f424f52524f575f494e4445585f4f564552464c4f570000604482015260640161089c565b508a546001600160801b03808416600160801b029116178b555b505b600299909901805464ffffffffff19164264ffffffffff16179055989650505050505050565b612a7b6040518060a0016040528060008152602001600081526020016000815260200160008152602001600081525090565b6002860154600160281b900461ffff1660808201819052612a9c575061133b565b612aa68585612b60565b6020820152612ab58583612b60565b8082526020820151612ac79190612e84565b604082018190526080820151612add9190612d69565b6060820181905215612b585760028601546060820151604051637df5bd3b60e01b8152600481019190915260248101859052600160581b9091046001600160a01b031690637df5bd3b90604401600060405180830381600087803b158015612b4457600080fd5b505af1158015610c0a573d6000803e3d6000fd5b505050505050565b6000821580612b6d575081155b15612b7a575060006107fd565b81612b9260026b033b2e3c9fd0803ce80000006134a2565b612b9e906000196134ee565b612ba891906134a2565b831115612bc75760405162461bcd60e51b815260040161089c906135a5565b6b033b2e3c9fd0803ce8000000612bdf6002826134a2565b612be984866135dc565b612bf3919061348a565b6127b691906134a2565b6000612c52826040518060400160405280602081526020017f5361666545524332303a206c6f772d6c6576656c2063616c6c206661696c6564815250856001600160a01b0316612e909092919063ffffffff16565b9050805160001480612c73575080806020019051810190612c739190613452565b61278a5760405162461bcd60e51b815260206004820152602a60248201527f5361666545524332303a204552433230206f7065726174696f6e20646964206e6044820152691bdd081cdd58d8d9595960b21b606482015260840161089c565b603380546001600160a01b038381166001600160a01b0319831681179093556040519116919082907f8be0079c531659141344cd1fd0a4f28419497f9722a3daafe3b4186f6b6457e090600090a35050565b600080612d384264ffffffffff8516612e84565b9050611cf56b033b2e3c9fd0803ce80000006301e13380612d598785612e9f565b612d6391906134a2565b90612eab565b6000821580612d76575081155b15612d83575060006107fd565b81612d9160026127106134a2565b612d9d906000196134ee565b612da791906134a2565b831115612dc65760405162461bcd60e51b815260040161089c906135a5565b612710612bdf6002826134a2565b600081612e165760405162461bcd60e51b815260206004820152601060248201526f4449564953494f4e5f42595f5a45524f60801b604482015260640161089c565b6000612e236002846134a2565b9050670de0b6b3a7640000612e3a826000196134ee565b612e4491906134a2565b841115612e635760405162461bcd60e51b815260040161089c906135a5565b8281612859670de0b6b3a7640000876135dc565b60006127b6838342612eb7565b60006127b682846134ee565b60606127b38484600085612fbb565b60006127b682846135dc565b60006127b6828461348a565b600080612ecb8364ffffffffff8616612e84565b905080612ee7576b033b2e3c9fd0803ce80000009150506127b6565b6000612ef46001836134ee565b9050600060028311612f07576000612f12565b612f126002846134ee565b90506000612f246301e13380896134a2565b90506000612f328280612b60565b90506000612f408284612b60565b905060006002612f5a84612f548a8a612e9f565b90612e9f565b612f6491906134a2565b905060006006612f7a84612f5489818d8d612e9f565b612f8491906134a2565b9050612fab81612d638481612f998a8e612e9f565b6b033b2e3c9fd0803ce8000000612d63565b9c9b505050505050505050505050565b60608247101561301c5760405162461bcd60e51b815260206004820152602660248201527f416464726573733a20696e73756666696369656e742062616c616e636520666f6044820152651c8818d85b1b60d21b606482015260840161089c565b600080866001600160a01b031685876040516130389190613627565b60006040518083038185875af1925050503d8060008114613075576040519150601f19603f3d011682016040523d82523d6000602084013e61307a565b606091505b509150915061308b87838387613096565b979650505050505050565b606083156131025782516130fb576001600160a01b0385163b6130fb5760405162461bcd60e51b815260206004820152601d60248201527f416464726573733a2063616c6c20746f206e6f6e2d636f6e7472616374000000604482015260640161089c565b5081611cf5565b611cf583838151156131175781518083602001fd5b8060405162461bcd60e51b815260040161089c9190613643565b80356001600160a01b038116811461314857600080fd5b919050565b6000806040838503121561316057600080fd5b8235915061317060208401613131565b90509250929050565b81516001600160801b03168152610160810160208301516131a560208401826001600160801b03169052565b5060408301516131c060408401826001600160801b03169052565b5060608301516131db60608401826001600160801b03169052565b5060808301516131f4608084018264ffffffffff169052565b5060a083015161320a60a084018261ffff169052565b5060c083015161322060c084018261ffff169052565b5060e083015161323660e084018261ffff169052565b50610100838101516001600160a01b0390811691840191909152610120808501518216908401526101409384015116929091019190915290565b60006020828403121561328257600080fd5b6127b682613131565b803561ffff8116811461314857600080fd5b60008060008060008060008060006101208a8c0312156132bc57600080fd5b6132c58a613131565b98506132d360208b01613131565b97506132e160408b01613131565b96506132ef60608b01613131565b95506132fd60808b01613131565b945061330b60a08b01613131565b935061331960c08b0161328b565b925061332760e08b0161328b565b91506133366101008b0161328b565b90509295985092959850929598565b60006020828403121561335757600080fd5b6127b68261328b565b60006020828403121561337257600080fd5b5035919050565b60008083601f84011261338b57600080fd5b50813567ffffffffffffffff8111156133a357600080fd5b6020830191508360208260051b85010111156133be57600080fd5b9250929050565b6000806000806000606086880312156133dd57600080fd5b853567ffffffffffffffff808211156133f557600080fd5b61340189838a01613379565b9097509550602088013591508082111561341a57600080fd5b5061342788828901613379565b96999598509660400135949350505050565b60006020828403121561344b57600080fd5b5051919050565b60006020828403121561346457600080fd5b815180151581146127b657600080fd5b634e487b7160e01b600052601160045260246000fd5b6000821982111561349d5761349d613474565b500190565b6000826134bf57634e487b7160e01b600052601260045260246000fd5b500490565b6001600160a01b0393909316835260208301919091526001600160801b0316604082015260600190565b60008282101561350057613500613474565b500390565b634e487b7160e01b600052603260045260246000fd5b600060001982141561352f5761352f613474565b5060010190565b6000806040838503121561354957600080fd5b505080516020909101519092909150565b6020808252602b908201527f496e697469616c697a61626c653a20636f6e7472616374206973206e6f74206960408201526a6e697469616c697a696e6760a81b606082015260800190565b60208082526017908201527f4d554c5449504c49434154494f4e5f4f564552464c4f57000000000000000000604082015260600190565b60008160001904831182151516156135f6576135f6613474565b500290565b60005b838110156136165781810151838201526020016135fe565b838111156125bc5750506000910152565b600082516136398184602087016135fb565b9190910192915050565b60208152600082518060208401526136628160408501602087016135fb565b601f01601f1916919091016040019291505056fea2646970667358221220bdf80c042496cb988ab480d1dbbf92d0ecfd66ae1fb1a7a289e677db9c6994d864736f6c63430008090033",
  "deployedBytecode": "0x608060405234801561001057600080fd5b50600436106101fa5760003560e01c80638e18d6481161011a578063c5ebeaec116100ad578063deb4476f1161007c578063deb4476f14610627578063df4f1f011461063a578063e30c39781461064d578063f2fde38b1461065e578063feb7bb571461067157600080fd5b8063c5ebeaec146104f2578063c7258ba614610505578063cd3293de14610518578063d5fc44bf1461061457600080fd5b8063b88a802f116100e9578063b88a802f14610495578063bf92857c1461049d578063bfe10928146104d0578063c3525c28146104e357600080fd5b80638e18d648146104545780638ea0b3781461046757806396c2614c1461047a578063acb708151461048257600080fd5b806357b095bb1161019257806375619ab51161016157806375619ab51461040157806379ba509714610414578063841e45611461041c5780638da5cb5b1461042f57600080fd5b806357b095bb146103c057806361f1ce63146103d35780636e553f65146103e6578063715018a6146103f957600080fd5b80632f865568116101ce5780632f86556814610372578063343576f5146103855780634a417a53146103a5578063552033c4146103ad57600080fd5b8062f714ce146101ff57806305bef05e146102255780630700037d1461033d5780630c5e9f731461035d575b600080fd5b61021261020d36600461314d565b610679565b6040519081526020015b60405180910390f35b6103306040805161016081018252600080825260208201819052918101829052606081018290526080810182905260a0810182905260c0810182905260e0810182905261010081018290526101208101829052610140810191909152506040805161016081018252609a546001600160801b038082168352600160801b9182900481166020840152609b548082169484019490945292049091166060820152609c5464ffffffffff8116608083015261ffff600160281b8204811660a0840152600160381b8204811660c0840152600160481b82041660e08301526001600160a01b03600160581b9091048116610100830152609d548116610120830152609e541661014082015290565b60405161021c9190613179565b61021261034b366004613270565b60a06020526000908152604090205481565b61037061036b36600461329d565b610803565b005b610370610380366004613270565b610c16565b610212610393366004613270565b609f6020526000908152604090205481565b610212610d8b565b6102126b033b2e3c9fd0803ce800000081565b6103706103ce36600461314d565b610ece565b6103706103e1366004613270565b611119565b6103706103f436600461314d565b61112d565b610370611234565b61037061040f366004613270565b611248565b610370611259565b61037061042a366004613270565b6112d0565b6033546001600160a01b03165b6040516001600160a01b03909116815260200161021c565b60975461043c906001600160a01b031681565b610370610475366004613345565b611342565b610212611353565b61021261049036600461314d565b611364565b61037061173d565b6104b06104ab366004613270565b61189a565b60408051948552602085019390935291830152606082015260800161021c565b60995461043c906001600160a01b031681565b610212670de0b6b3a764000081565b610370610500366004613360565b6119f6565b610370610513366004613360565b611be1565b609a54609b54609c54609d54609e54610595946001600160801b0380821695600160801b9283900482169581831695939091049091169264ffffffffff82169261ffff600160281b8404811693600160381b8104821693600160481b8204909216926001600160a01b03600160581b90920482169290821691168b565b604080516001600160801b039c8d1681529a8c1660208c0152988b16988a019890985298909516606088015264ffffffffff909316608087015261ffff91821660a0870152811660c08601521660e08401526001600160a01b03908116610100840152928316610120830152919091166101408201526101600161021c565b60985461043c906001600160a01b031681565b610212610635366004613270565b611caf565b6103706106483660046133c5565b611cfd565b6065546001600160a01b031661043c565b61037061066c366004613270565b612082565b6102126120f3565b609c546040516370a0823160e01b8152336004820152600091600160581b90046001600160a01b031690829082906370a082319060240160206040518083038186803b1580156106c857600080fd5b505afa1580156106dc573d6000803e3d6000fd5b505050506040513d601f19601f820116820180604052508101906107009190613439565b90506000818610156107125785610714565b815b9050610720609a6120ff565b60975461073c90609a906001600160a01b0316856000856121ce565b609a54604051636b81068560e11b81523360048201526001600160a01b038781166024830152604482018490526001600160801b0390921660648201529084169063d7020d0a90608401600060405180830381600087803b1580156107a057600080fd5b505af11580156107b4573d6000803e3d6000fd5b50506040518381526001600160a01b03881692503391507f9b1bfa7fa9ee420a16e124f794c35ac9f90472acc99140eb2f6447c714cad8eb9060200160405180910390a3925050505b92915050565b600054610100900460ff16158080156108235750600054600160ff909116105b8061083d5750303b15801561083d575060005460ff166001145b6108a55760405162461bcd60e51b815260206004820152602e60248201527f496e697469616c697a61626c653a20636f6e747261637420697320616c72656160448201526d191e481a5b9a5d1a585b1a5e995960921b60648201526084015b60405180910390fd5b6000805460ff1916600117905580156108c8576000805461ff0019166101001790555b6001600160a01b038a1661091e5760405162461bcd60e51b815260206004820181905260248201527f66696c20746f6b656e20616464726573732063616e6e6f74206265207a65726f604482015260640161089c565b6001600160a01b0389166109745760405162461bcd60e51b815260206004820181905260248201527f53465420746f6b656e20616464726573732063616e6e6f74206265207a65726f604482015260640161089c565b6001600160a01b0387166109d45760405162461bcd60e51b815260206004820152602160248201527f7346696c20746f6b656e20616464726573732063616e6e6f74206265207a65726044820152606f60f81b606482015260840161089c565b6001600160a01b038616610a3c5760405162461bcd60e51b815260206004820152602960248201527f7661726961626c654465627420746f6b656e20616464726573732063616e6e6f60448201526874206265207a65726f60b81b606482015260840161089c565b6001600160a01b038516610aa65760405162461bcd60e51b815260206004820152602b60248201527f696e74657265737452617465537472617465677920616464726573732063616e60448201526a6e6f74206265207a65726f60a81b606482015260840161089c565b610aae612491565b610ab66124b8565b609780546001600160a01b03808d166001600160a01b03199283161790925560988054928c1692909116919091179055610aef886124e8565b609c8054609d80546001600160a01b038a81166001600160a01b031992831617909255609e80548a8416921691909117905561ffff858116600160481b026affff00000000000000000019888316600160381b02166affffffff0000000000000019928a16600160281b0266ffff000000000019948e16600160581b02949094167fff0000000000000000000000000000000000000000ffffffff0000ffffffffff909516949094179290921716919091171790557b033b2e3c9fd0803ce800000000000000033b2e3c9fd0803ce8000000609a558015610c0a576000805461ff0019169055604051600181527f7f26b83ff96e1f2b6a682f133852f6798a09c465da95921460cefb38474024989060200160405180910390a15b50505050505050505050565b600080610c228361189a565b935050925050670de0b6b3a76400008110610c7f5760405162461bcd60e51b815260206004820152601d60248201527f4845414c54485f464143544f525f41424f56455f5448524553484f4c44000000604482015260640161089c565b6001600160a01b0383166000908152609f6020526040902054610ca28385611364565b5060985460405163a9059cbb60e01b8152336004820152602481018390526001600160a01b039091169063a9059cbb90604401602060405180830381600087803b158015610cef57600080fd5b505af1158015610d03573d6000803e3d6000fd5b505050506040513d601f19601f82011682018060405250810190610d279190613452565b506001600160a01b0384166000818152609f602090815260408083209290925581513381529081018690529081018390527ff3fa0eaee8f258c23b013654df25d1527f98a5c7ccd5e951dd77caca400ef9729060600160405180910390a250505050565b600080609a60030160009054906101000a90046001600160a01b03166001600160a01b03166318160ddd6040518163ffffffff1660e01b815260040160206040518083038186803b158015610ddf57600080fd5b505afa158015610df3573d6000803e3d6000fd5b505050506040513d601f19601f82011682018060405250810190610e179190613439565b609754609c546040516370a0823160e01b81526001600160a01b03600160581b909204821660048201529293506000929116906370a082319060240160206040518083038186803b158015610e6b57600080fd5b505afa158015610e7f573d6000803e3d6000fd5b505050506040513d601f19601f82011682018060405250810190610ea39190613439565b90508115610ec457610eb5818361348a565b610ebf90836134a2565b610ec7565b60005b9250505090565b609854604051636eb1769f60e11b815233600482015230602482015283916001600160a01b03169063dd62ed3e9060440160206040518083038186803b158015610f1757600080fd5b505afa158015610f2b573d6000803e3d6000fd5b505050506040513d601f19601f82011682018060405250810190610f4f9190613439565b1015610f965760405162461bcd60e51b81526020600482015260166024820152750a68ca8be82a0a0a49eac8abe9c9ea8be8a9c9eaa8e960531b604482015260640161089c565b6098546040516370a0823160e01b815233600482015283916001600160a01b0316906370a082319060240160206040518083038186803b158015610fd957600080fd5b505afa158015610fed573d6000803e3d6000fd5b505050506040513d601f19601f820116820180604052508101906110119190613439565b10156110585760405162461bcd60e51b81526020600482015260166024820152750a68ca8be848298829c868abe9c9ea8be8a9c9eaa8e960531b604482015260640161089c565b611062609a6120ff565b609754609c5461108c91609a916001600160a01b0391821691600160581b909104166000806121ce565b6098546110a4906001600160a01b0316333085612551565b6001600160a01b0381166000908152609f6020526040812080548492906110cc90849061348a565b909155505060408051338152602081018490526001600160a01b038316917f4a11de2114caf219af6f0e61dd164f13fdec022651f707d5ffcd3bbc37e1f254910160405180910390a25050565b6111216125c2565b61112a8161261c565b50565b609c54600160581b90046001600160a01b031661114a609a6120ff565b60975461116690609a906001600160a01b0316838660006121ce565b60975461117e906001600160a01b0316338386612551565b609a54604051630ab714fb60e11b81526001600160a01b0383169163156e29f6916111b991869188916001600160801b0316906004016134c4565b600060405180830381600087803b1580156111d357600080fd5b505af11580156111e7573d6000803e3d6000fd5b505060408051338152602081018790526001600160a01b03861693507f5548c837ab068cf56a2c2479df0882a4922fd203edb7517321831d95078c5f6292500160405180910390a2505050565b61123c6125c2565b6112466000612685565b565b6112506125c2565b61112a816124e8565b60655433906001600160a01b031681146112c75760405162461bcd60e51b815260206004820152602960248201527f4f776e61626c6532537465703a2063616c6c6572206973206e6f7420746865206044820152683732bb9037bbb732b960b91b606482015260840161089c565b61112a81612685565b6112d86125c2565b609c5460405163841e456160e01b81526001600160a01b038381166004830152600160581b9092049091169063841e456190602401600060405180830381600087803b15801561132757600080fd5b505af115801561133b573d6000803e3d6000fd5b5050505050565b61134a6125c2565b61112a8161269e565b600061135f609a61270b565b905090565b609d546040516370a0823160e01b81526001600160a01b03838116600483015260009283928392909116906370a082319060240160206040518083038186803b1580156113b057600080fd5b505afa1580156113c4573d6000803e3d6000fd5b505050506040513d601f19601f820116820180604052508101906113e89190613439565b33600090815260a06020526040812054919250828710611408578261140a565b865b905060008183101561141c578261141e565b815b905061142a81836134ee565b609754604051636eb1769f60e11b815233600482015230602482015291965086916001600160a01b039091169063dd62ed3e9060440160206040518083038186803b15801561147857600080fd5b505afa15801561148c573d6000803e3d6000fd5b505050506040513d601f19601f820116820180604052508101906114b09190613439565b10156114fe5760405162461bcd60e51b815260206004820152601860248201527f46494c5f414c4c4f57414e43455f4e4f545f454e4f5547480000000000000000604482015260640161089c565b6097546040516370a0823160e01b815233600482015286916001600160a01b0316906370a082319060240160206040518083038186803b15801561154157600080fd5b505afa158015611555573d6000803e3d6000fd5b505050506040513d601f19601f820116820180604052508101906115799190613439565b10156115c05760405162461bcd60e51b815260206004820152601660248201527508c9298be848298829c868abe9c9ea8be8a9c9eaa8e960531b604482015260640161089c565b6115ca609a6120ff565b609d54609a54604051637a94c56560e11b81526001600160a01b039092169163f5298aca91611611918b918791600160801b9091046001600160801b0316906004016134c4565b600060405180830381600087803b15801561162b57600080fd5b505af115801561163f573d6000803e3d6000fd5b5050609c546097546001600160a01b03600160581b9092048216935061166d9250609a9116838660006121ce565b851561169957609c54609754611699916001600160a01b03918216913391600160581b90041689612551565b33600090815260a06020526040812080548492906116b89084906134ee565b9091555050609c546097546116e2916001600160a01b0391821691600160581b909104168461275a565b60408051848152602081018490529081018790526001600160a01b0389169033907fd6a068ae75f1025380f00b7a1476f705bae3c3644640cf62b857f8d02ace826e9060600160405180910390a35090979650505050505050565b336000908152609f60205260409020541561179a5760405162461bcd60e51b815260206004820152601b60248201527f4d5553545f554e504c4547455f414c4c5f434f4c4c41544552414c0000000000604482015260640161089c565b33600090815260a06020526040908190205460975491516370a0823160e01b8152306004820152909182916001600160a01b03909116906370a082319060240160206040518083038186803b1580156117f257600080fd5b505afa158015611806573d6000803e3d6000fd5b505050506040513d601f19601f8201168201806040525081019061182a9190613439565b101561183557600080fd5b33600081815260a0602052604081205560975461185e916001600160a01b03909116908361275a565b60408051338152602081018390527fba8de60c3403ec381d1d484652ea1980e3c3e56359195c92525bff4ce47ad98e910160405180910390a150565b6001600160a01b038181166000818152609f602052604080822054609d5491516370a0823160e01b815260048101949094529391928392839216906370a082319060240160206040518083038186803b1580156118f657600080fd5b505afa15801561190a573d6000803e3d6000fd5b505050506040513d601f19601f8201168201806040525081019061192e9190613439565b609c54604051631a6d1d7b60e01b81526004810187905260248101839052600160381b90910461ffff16604482015290935073__$25820e62b32c1fe3d9c4cb73717c9c94ef$__90631a6d1d7b9060640160206040518083038186803b15801561199757600080fd5b505af41580156119ab573d6000803e3d6000fd5b505050506040513d601f19601f820116820180604052508101906119cf9190613439565b609c549092506119ed9085908590600160481b900461ffff1661278f565b90509193509193565b6000611a013361189a565b509250505081811015611a565760405162461bcd60e51b815260206004820152601c60248201527f415641494c41424c455f424f52524f57535f4e4f545f454e4f55474800000000604482015260640161089c565b611a60609a6120ff565b609d54609a54604051630ab714fb60e11b81526001600160a01b039092169163156e29f691611aa79133918791600160801b9091046001600160801b0316906004016134c4565b600060405180830381600087803b158015611ac157600080fd5b505af1158015611ad5573d6000803e3d6000fd5b5050609754609c54611b039350609a92506001600160a01b0391821691600160581b909104166000866121ce565b609c54604051634efecaa560e01b815233600482015260248101849052600160581b9091046001600160a01b031690634efecaa590604401602060405180830381600087803b158015611b5557600080fd5b505af1158015611b69573d6000803e3d6000fd5b505050506040513d601f19601f82011682018060405250810190611b8d9190613439565b50609b546040517fe1979fe4c35e0cef342fef5668e2c8e7a7e9f5d5d1ca8fee0ac6c427fa4153af91611bd59133918691600160801b9091046001600160801b0316906134c4565b60405180910390a15050565b6000611bec33611caf565b9050600081831015611bfe5782611c00565b815b9050611c0c609a6120ff565b609754609c54611c3691609a916001600160a01b0391821691600160581b909104166000806121ce565b336000908152609f602052604081208054839290611c559084906134ee565b9091555050609854611c71906001600160a01b0316338361275a565b60408051338152602081018390527f0cdb7e259318c69f16c8770399e09f5531befac5033bf7c447e3bc2961169295910160405180910390a1505050565b6000806000611cbd8461189a565b50509150915080600014611cf357609c54611ce4908290600160381b900461ffff166127bd565b611cee90836134ee565b611cf5565b815b949350505050565b6099546001600160a01b03163314611d575760405162461bcd60e51b815260206004820152601960248201527f4f4e4c595f4449535452494255544f525f43414e5f43414c4c00000000000000604482015260640161089c565b838214611d985760405162461bcd60e51b815260206004820152600f60248201526e494e434f52524543545f504152414d60881b604482015260640161089c565b609754604051636eb1769f60e11b815233600482015230602482015282916001600160a01b03169063dd62ed3e9060440160206040518083038186803b158015611de157600080fd5b505afa158015611df5573d6000803e3d6000fd5b505050506040513d601f19601f82011682018060405250810190611e199190613439565b1015611e675760405162461bcd60e51b815260206004820152601c60248201527f46494c5f544f4b454e5f415050524f56455f4e4f545f454e4f55474800000000604482015260640161089c565b6097546040516370a0823160e01b815233600482015282916001600160a01b0316906370a082319060240160206040518083038186803b158015611eaa57600080fd5b505afa158015611ebe573d6000803e3d6000fd5b505050506040513d601f19601f82011682018060405250810190611ee29190613439565b1015611f305760405162461bcd60e51b815260206004820152601c60248201527f46494c5f544f4b454e5f42414c414e43455f4e4f545f454e4f55474800000000604482015260640161089c565b60005b8481101561206957838382818110611f4d57611f4d613505565b9050602002013560a06000888885818110611f6a57611f6a613505565b9050602002016020810190611f7f9190613270565b6001600160a01b03166001600160a01b031681526020019081526020016000206000828254611fae919061348a565b90915550506099547f2e379e1e638f7b6d5ab413f9073818455805462de4aa4e33798c9ed1ac7afd91906001600160a01b0316878784818110611ff357611ff3613505565b90506020020160208101906120089190613270565b86868581811061201a5761201a613505565b9050602002013560405161204f939291906001600160a01b039384168152919092166020820152604081019190915260600190565b60405180910390a1806120618161351b565b915050611f33565b5060975461133b906001600160a01b0316333084612551565b61208a6125c2565b606580546001600160a01b0383166001600160a01b031990911681179091556120bb6033546001600160a01b031690565b6001600160a01b03167f38d16b8cac22d99fc7c124b9cd0de2d3fa1faef420bfe791d8c362d765e2270060405160405180910390a350565b600061135f609a61286d565b60038101546040805163b1bf962d60e01b815290516000926001600160a01b03169163b1bf962d916004808301926020929190829003018186803b15801561214657600080fd5b505afa15801561215a573d6000803e3d6000fd5b505050506040513d601f19601f8201168201806040525081019061217e9190613439565b825460028401549192506001600160801b03600160801b820481169291169064ffffffffff166000806121b487878688876128cc565b915091506121c58787878585612a49565b50505050505050565b6121f96040518060800160405280600081526020016000815260200160008152602001600081525090565b855460038701546040805163b1bf962d60e01b8152905161229293600160801b90046001600160801b0316926001600160a01b03169163b1bf962d916004808301926020929190829003018186803b15801561225457600080fd5b505afa158015612268573d6000803e3d6000fd5b505050506040513d601f19601f8201168201806040525081019061228c9190613439565b90612b60565b6060820181905260048781015460028901546040516340e464b960e11b81526001600160a01b038a811694820194909452888416602482015260448101889052606481018790526084810194909452600160281b900461ffff1660a484015216906381c8c9729060c401604080518083038186803b15801561231357600080fd5b505afa158015612327573d6000803e3d6000fd5b505050506040513d601f19601f8201168201806040525081019061234b9190613536565b6040830152602082018190526001600160801b0310156123ad5760405162461bcd60e51b815260206004820152601760248201527f4c49515549444954595f524154455f4f564552464c4f57000000000000000000604482015260640161089c565b60408101516001600160801b0310156124085760405162461bcd60e51b815260206004820152601d60248201527f5641524941424c455f424f52524f575f524154455f4f564552464c4f57000000604482015260640161089c565b6020818101516040808401516001600160801b03808416600160801b82841681029190911760018d01558b54845195865295850192909252848116848401529304909216606082015290516001600160a01b038716917f4063a2df84b66bb796eb32622851d833e57b2c4292900c18f963af8808b13e35919081900360800190a2505050505050565b600054610100900460ff166112465760405162461bcd60e51b815260040161089c9061355a565b600054610100900460ff166124df5760405162461bcd60e51b815260040161089c9061355a565b61124633612685565b609954604080516001600160a01b03928316815291831660208301527f128323376dda10f736641415ad0e5e8a534e184b01a83f1d15af57c4627480d8910160405180910390a1609980546001600160a01b0319166001600160a01b0392909216919091179055565b6040516001600160a01b03808516602483015283166044820152606481018290526125bc9085906323b872dd60e01b906084015b60408051601f198184030181529190526020810180516001600160e01b03166001600160e01b031990931692909217909152612bfd565b50505050565b6033546001600160a01b031633146112465760405162461bcd60e51b815260206004820181905260248201527f4f776e61626c653a2063616c6c6572206973206e6f7420746865206f776e6572604482015260640161089c565b609e54604080516001600160a01b03928316815291831660208301527f8ae2fc9d7793180dcc54372828b79d8d347e11a6204bddba90ffe2fefbf3a45b910160405180910390a1609e80546001600160a01b0319166001600160a01b0392909216919091179055565b606580546001600160a01b031916905561112a81612cd2565b609c5460408051600160281b90920461ffff9081168352831660208301527f31caec7450620a660d4a01ee15dfa9b50473f532bbca695e0264110405656f69910160405180910390a1609c805461ffff909216600160281b0266ffff000000000019909216919091179055565b600281015460009064ffffffffff908116904216811415612735575050546001600160801b031690565b82546001840154600091611cf5916001600160801b039182169161228c911685612d24565b6040516001600160a01b03831660248201526044810182905261278a90849063a9059cbb60e01b90606401612585565b505050565b60008261279f57506000196127b6565b6127b3836127ad8685612d69565b90612dd4565b90505b9392505050565b6000816128045760405162461bcd60e51b81526020600482015260156024820152744d4154485f4449564953494f4e5f42595f5a45524f60581b604482015260640161089c565b60006128116002846134a2565b9050612710612822826000196134ee565b61282c91906134a2565b84111561284b5760405162461bcd60e51b815260040161089c906135a5565b8281612859612710876135dc565b612863919061348a565b611cf591906134a2565b600281015460009064ffffffffff90811690421681141561289e57505054600160801b90046001600160801b031690565b82546001840154600091611cf5916001600160801b03600160801b9283900481169261228c92041685612e77565b600185015460009081906001600160801b031685858215612a235760006128f38488612d24565b90506128ff818a612b60565b92506001600160801b038311156129585760405162461bcd60e51b815260206004820152601860248201527f4c49515549444954595f494e4445585f4f564552464c4f570000000000000000604482015260640161089c565b8a546fffffffffffffffffffffffffffffffff19166001600160801b038416178b558915612a215760018b01546000906129a290600160801b90046001600160801b031689612e77565b90506129ae818a612b60565b92506001600160801b03831115612a075760405162461bcd60e51b815260206004820152601e60248201527f5641524941424c455f424f52524f575f494e4445585f4f564552464c4f570000604482015260640161089c565b508a546001600160801b03808416600160801b029116178b555b505b600299909901805464ffffffffff19164264ffffffffff16179055989650505050505050565b612a7b6040518060a0016040528060008152602001600081526020016000815260200160008152602001600081525090565b6002860154600160281b900461ffff1660808201819052612a9c575061133b565b612aa68585612b60565b6020820152612ab58583612b60565b8082526020820151612ac79190612e84565b604082018190526080820151612add9190612d69565b6060820181905215612b585760028601546060820151604051637df5bd3b60e01b8152600481019190915260248101859052600160581b9091046001600160a01b031690637df5bd3b90604401600060405180830381600087803b158015612b4457600080fd5b505af1158015610c0a573d6000803e3d6000fd5b505050505050565b6000821580612b6d575081155b15612b7a575060006107fd565b81612b9260026b033b2e3c9fd0803ce80000006134a2565b612b9e906000196134ee565b612ba891906134a2565b831115612bc75760405162461bcd60e51b815260040161089c906135a5565b6b033b2e3c9fd0803ce8000000612bdf6002826134a2565b612be984866135dc565b612bf3919061348a565b6127b691906134a2565b6000612c52826040518060400160405280602081526020017f5361666545524332303a206c6f772d6c6576656c2063616c6c206661696c6564815250856001600160a01b0316612e909092919063ffffffff16565b9050805160001480612c73575080806020019051810190612c739190613452565b61278a5760405162461bcd60e51b815260206004820152602a60248201527f5361666545524332303a204552433230206f7065726174696f6e20646964206e6044820152691bdd081cdd58d8d9595960b21b606482015260840161089c565b603380546001600160a01b038381166001600160a01b0319831681179093556040519116919082907f8be0079c531659141344cd1fd0a4f28419497f9722a3daafe3b4186f6b6457e090600090a35050565b600080612d384264ffffffffff8516612e84565b9050611cf56b033b2e3c9fd0803ce80000006301e13380612d598785612e9f565b612d6391906134a2565b90612eab565b6000821580612d76575081155b15612d83575060006107fd565b81612d9160026127106134a2565b612d9d906000196134ee565b612da791906134a2565b831115612dc65760405162461bcd60e51b815260040161089c906135a5565b612710612bdf6002826134a2565b600081612e165760405162461bcd60e51b815260206004820152601060248201526f4449564953494f4e5f42595f5a45524f60801b604482015260640161089c565b6000612e236002846134a2565b9050670de0b6b3a7640000612e3a826000196134ee565b612e4491906134a2565b841115612e635760405162461bcd60e51b815260040161089c906135a5565b8281612859670de0b6b3a7640000876135dc565b60006127b6838342612eb7565b60006127b682846134ee565b60606127b38484600085612fbb565b60006127b682846135dc565b60006127b6828461348a565b600080612ecb8364ffffffffff8616612e84565b905080612ee7576b033b2e3c9fd0803ce80000009150506127b6565b6000612ef46001836134ee565b9050600060028311612f07576000612f12565b612f126002846134ee565b90506000612f246301e13380896134a2565b90506000612f328280612b60565b90506000612f408284612b60565b905060006002612f5a84612f548a8a612e9f565b90612e9f565b612f6491906134a2565b905060006006612f7a84612f5489818d8d612e9f565b612f8491906134a2565b9050612fab81612d638481612f998a8e612e9f565b6b033b2e3c9fd0803ce8000000612d63565b9c9b505050505050505050505050565b60608247101561301c5760405162461bcd60e51b815260206004820152602660248201527f416464726573733a20696e73756666696369656e742062616c616e636520666f6044820152651c8818d85b1b60d21b606482015260840161089c565b600080866001600160a01b031685876040516130389190613627565b60006040518083038185875af1925050503d8060008114613075576040519150601f19603f3d011682016040523d82523d6000602084013e61307a565b606091505b509150915061308b87838387613096565b979650505050505050565b606083156131025782516130fb576001600160a01b0385163b6130fb5760405162461bcd60e51b815260206004820152601d60248201527f416464726573733a2063616c6c20746f206e6f6e2d636f6e7472616374000000604482015260640161089c565b5081611cf5565b611cf583838151156131175781518083602001fd5b8060405162461bcd60e51b815260040161089c9190613643565b80356001600160a01b038116811461314857600080fd5b919050565b6000806040838503121561316057600080fd5b8235915061317060208401613131565b90509250929050565b81516001600160801b03168152610160810160208301516131a560208401826001600160801b03169052565b5060408301516131c060408401826001600160801b03169052565b5060608301516131db60608401826001600160801b03169052565b5060808301516131f4608084018264ffffffffff169052565b5060a083015161320a60a084018261ffff169052565b5060c083015161322060c084018261ffff169052565b5060e083015161323660e084018261ffff169052565b50610100838101516001600160a01b0390811691840191909152610120808501518216908401526101409384015116929091019190915290565b60006020828403121561328257600080fd5b6127b682613131565b803561ffff8116811461314857600080fd5b60008060008060008060008060006101208a8c0312156132bc57600080fd5b6132c58a613131565b98506132d360208b01613131565b97506132e160408b01613131565b96506132ef60608b01613131565b95506132fd60808b01613131565b945061330b60a08b01613131565b935061331960c08b0161328b565b925061332760e08b0161328b565b91506133366101008b0161328b565b90509295985092959850929598565b60006020828403121561335757600080fd5b6127b68261328b565b60006020828403121561337257600080fd5b5035919050565b60008083601f84011261338b57600080fd5b50813567ffffffffffffffff8111156133a357600080fd5b6020830191508360208260051b85010111156133be57600080fd5b9250929050565b6000806000806000606086880312156133dd57600080fd5b853567ffffffffffffffff808211156133f557600080fd5b61340189838a01613379565b9097509550602088013591508082111561341a57600080fd5b5061342788828901613379565b96999598509660400135949350505050565b60006020828403121561344b57600080fd5b5051919050565b60006020828403121561346457600080fd5b815180151581146127b657600080fd5b634e487b7160e01b600052601160045260246000fd5b6000821982111561349d5761349d613474565b500190565b6000826134bf57634e487b7160e01b600052601260045260246000fd5b500490565b6001600160a01b0393909316835260208301919091526001600160801b0316604082015260600190565b60008282101561350057613500613474565b500390565b634e487b7160e01b600052603260045260246000fd5b600060001982141561352f5761352f613474565b5060010190565b6000806040838503121561354957600080fd5b505080516020909101519092909150565b6020808252602b908201527f496e697469616c697a61626c653a20636f6e7472616374206973206e6f74206960408201526a6e697469616c697a696e6760a81b606082015260800190565b60208082526017908201527f4d554c5449504c49434154494f4e5f4f564552464c4f57000000000000000000604082015260600190565b60008160001904831182151516156135f6576135f6613474565b500290565b60005b838110156136165781810151838201526020016135fe565b838111156125bc5750506000910152565b600082516136398184602087016135fb565b9190910192915050565b60208152600082518060208401526136628160408501602087016135fb565b601f01601f1916919091016040019291505056fea2646970667358221220bdf80c042496cb988ab480d1dbbf92d0ecfd66ae1fb1a7a289e677db9c6994d864736f6c63430008090033",
  "libraries": {
    "RerserveLogic": "0x872f76C032f899976FC1C4De12E6A48fE3Cc02B8",
    "GenericLogic": "0xF2d02e288Bb28D7dbB3FbBb2a4876199A98A06d1"
  },
  "devdoc": {
    "kind": "dev",
    "methods": {
      "acceptOwnership()": {
        "details": "The new owner accepts the ownership transfer."
      },
      "borrow(uint256)": {
        "details": "Allows users to borrow a specific `amount` of FIL, provided that the borrower already deposited enough collateral",
        "params": {
          "amount": "The amount to be borrowed*"
        }
      },
      "deposit(uint256,address)": {
        "details": "Deposits an `amount` of FIL into the reserve, receiving equivalent sFIL in return.",
        "params": {
          "amount": "The amount to be deposited",
          "onBehalfOf": "The address that will receive the sFIL, same as msg.sender if the user   wants to receive them on his own wallet, or a different address if the beneficiary of sFIL   is a different wallet*"
        }
      },
      "getReserveNormalizedIncome()": {
        "details": "Returns the normalized income normalized income of the reserve",
        "returns": {
          "_0": "The reserve's normalized income"
        }
      },
      "getReserveNormalizedVariableDebt()": {
        "details": "Returns the normalized variable debt per unit of FIL",
        "returns": {
          "_0": "The reserve normalized variable debt"
        }
      },
      "liquidate(address)": {
        "details": "Function to liquidate a non-healthy position collateral-wise, with Health Factor below 1",
        "params": {
          "user": "The address of the borrower getting liquidated to receive the underlying collateral asset directly*"
        }
      },
      "owner()": {
        "details": "Returns the address of the current owner."
      },
      "pendingOwner()": {
        "details": "Returns the address of the pending owner."
      },
      "pledge(uint256,address)": {
        "details": "pledge an `amount` of SFT for borrowing FIL from the pool",
        "params": {
          "amount": "The amount of SFT",
          "onBehalfOf": "The address that will receive the SFT as collateral,same as msg.sender if the user   wants to receive them on his own wallet, or a different address if the beneficiary is a different wallet"
        }
      },
      "renounceOwnership()": {
        "details": "Leaves the contract without owner. It will not be possible to call `onlyOwner` functions. Can only be called by the current owner. NOTE: Renouncing ownership will leave the contract without an owner, thereby disabling any functionality that is only available to the owner."
      },
      "repay(uint256,address)": {
        "params": {
          "amount": "The amount to repay - Send the value type(uint256).max in order to repay the whole debt",
          "onBehalfOf": "Address of the user who will get his debt reduced/removed. Should be the address of the user calling the function if he wants to reduce/remove his own debt, or the address of any other other borrower whose debt should be removed"
        },
        "returns": {
          "_0": "The final amount repaid*"
        }
      },
      "transferOwnership(address)": {
        "details": "Starts the ownership transfer of the contract to a new account. Replaces the pending transfer if there is one. Can only be called by the current owner."
      },
      "unpledge(uint256)": {
        "details": "unpledge an `amount` of SFT from the pool, can't cause totalDebt > totalCollateral * ltv",
        "params": {
          "amount": "The amount of SFT   - Send the value type(uint256).max in order to unpledge the max amount you can unpledge"
        }
      },
      "withdraw(uint256,address)": {
        "details": "Withdraws an `amount` of FIL from the reserve, burning the equivalent sFIL owned",
        "params": {
          "amount": "The FIL amount to be withdrawn   - Send the value type(uint256).max in order to withdraw the whole sFIL balance",
          "to": "Address that will receive the underlying, same as msg.sender if the user   wants to receive it on his own wallet, or a different address if the beneficiary is a   different wallet"
        },
        "returns": {
          "_0": "The final amount withdrawn*"
        }
      }
    },
    "version": 1
  },
  "userdoc": {
    "kind": "user",
    "methods": {
      "repay(uint256,address)": {
        "notice": "Repays a borrowed `amount` of FIL, burning the equivalent debt tokens owned"
      }
    },
    "version": 1
  },
  "storageLayout": {
    "storage": [
      {
        "astId": 244,
        "contract": "contracts/lendingpool/LendingPool.sol:LendingPool",
        "label": "_initialized",
        "offset": 0,
        "slot": "0",
        "type": "t_uint8"
      },
      {
        "astId": 247,
        "contract": "contracts/lendingpool/LendingPool.sol:LendingPool",
        "label": "_initializing",
        "offset": 1,
        "slot": "0",
        "type": "t_bool"
      },
      {
        "astId": 777,
        "contract": "contracts/lendingpool/LendingPool.sol:LendingPool",
        "label": "__gap",
        "offset": 0,
        "slot": "1",
        "type": "t_array(t_uint256)50_storage"
      },
      {
        "astId": 116,
        "contract": "contracts/lendingpool/LendingPool.sol:LendingPool",
        "label": "_owner",
        "offset": 0,
        "slot": "51",
        "type": "t_address"
      },
      {
        "astId": 236,
        "contract": "contracts/lendingpool/LendingPool.sol:LendingPool",
        "label": "__gap",
        "offset": 0,
        "slot": "52",
        "type": "t_array(t_uint256)49_storage"
      },
      {
        "astId": 25,
        "contract": "contracts/lendingpool/LendingPool.sol:LendingPool",
        "label": "_pendingOwner",
        "offset": 0,
        "slot": "101",
        "type": "t_address"
      },
      {
        "astId": 104,
        "contract": "contracts/lendingpool/LendingPool.sol:LendingPool",
        "label": "__gap",
        "offset": 0,
        "slot": "102",
        "type": "t_array(t_uint256)49_storage"
      },
      {
        "astId": 3213,
        "contract": "contracts/lendingpool/LendingPool.sol:LendingPool",
        "label": "filToken",
        "offset": 0,
        "slot": "151",
        "type": "t_address"
      },
      {
        "astId": 3215,
        "contract": "contracts/lendingpool/LendingPool.sol:LendingPool",
        "label": "sftToken",
        "offset": 0,
        "slot": "152",
        "type": "t_address"
      },
      {
        "astId": 3217,
        "contract": "contracts/lendingpool/LendingPool.sol:LendingPool",
        "label": "distributor",
        "offset": 0,
        "slot": "153",
        "type": "t_address"
      },
      {
        "astId": 3220,
        "contract": "contracts/lendingpool/LendingPool.sol:LendingPool",
        "label": "reserve",
        "offset": 0,
        "slot": "154",
        "type": "t_struct(ReserveData)5048_storage"
      },
      {
        "astId": 3224,
        "contract": "contracts/lendingpool/LendingPool.sol:LendingPool",
        "label": "pledges",
        "offset": 0,
        "slot": "159",
        "type": "t_mapping(t_address,t_uint256)"
      },
      {
        "astId": 3228,
        "contract": "contracts/lendingpool/LendingPool.sol:LendingPool",
        "label": "rewards",
        "offset": 0,
        "slot": "160",
        "type": "t_mapping(t_address,t_uint256)"
      }
    ],
    "types": {
      "t_address": {
        "encoding": "inplace",
        "label": "address",
        "numberOfBytes": "20"
      },
      "t_array(t_uint256)49_storage": {
        "base": "t_uint256",
        "encoding": "inplace",
        "label": "uint256[49]",
        "numberOfBytes": "1568"
      },
      "t_array(t_uint256)50_storage": {
        "base": "t_uint256",
        "encoding": "inplace",
        "label": "uint256[50]",
        "numberOfBytes": "1600"
      },
      "t_bool": {
        "encoding": "inplace",
        "label": "bool",
        "numberOfBytes": "1"
      },
      "t_mapping(t_address,t_uint256)": {
        "encoding": "mapping",
        "key": "t_address",
        "label": "mapping(address => uint256)",
        "numberOfBytes": "32",
        "value": "t_uint256"
      },
      "t_struct(ReserveData)5048_storage": {
        "encoding": "inplace",
        "label": "struct DataTypes.ReserveData",
        "members": [
          {
            "astId": 5027,
            "contract": "contracts/lendingpool/LendingPool.sol:LendingPool",
            "label": "liquidityIndex",
            "offset": 0,
            "slot": "0",
            "type": "t_uint128"
          },
          {
            "astId": 5029,
            "contract": "contracts/lendingpool/LendingPool.sol:LendingPool",
            "label": "variableBorrowIndex",
            "offset": 16,
            "slot": "0",
            "type": "t_uint128"
          },
          {
            "astId": 5031,
            "contract": "contracts/lendingpool/LendingPool.sol:LendingPool",
            "label": "currentLiquidityRate",
            "offset": 0,
            "slot": "1",
            "type": "t_uint128"
          },
          {
            "astId": 5033,
            "contract": "contracts/lendingpool/LendingPool.sol:LendingPool",
            "label": "currentVariableBorrowRate",
            "offset": 16,
            "slot": "1",
            "type": "t_uint128"
          },
          {
            "astId": 5035,
            "contract": "contracts/lendingpool/LendingPool.sol:LendingPool",
            "label": "lastUpdateTimestamp",
            "offset": 0,
            "slot": "2",
            "type": "t_uint40"
          },
          {
            "astId": 5037,
            "contract": "contracts/lendingpool/LendingPool.sol:LendingPool",
            "label": "reserveFactor",
            "offset": 5,
            "slot": "2",
            "type": "t_uint16"
          },
          {
            "astId": 5039,
            "contract": "contracts/lendingpool/LendingPool.sol:LendingPool",
            "label": "ltv",
            "offset": 7,
            "slot": "2",
            "type": "t_uint16"
          },
          {
            "astId": 5041,
            "contract": "contracts/lendingpool/LendingPool.sol:LendingPool",
            "label": "liquidationThreshold",
            "offset": 9,
            "slot": "2",
            "type": "t_uint16"
          },
          {
            "astId": 5043,
            "contract": "contracts/lendingpool/LendingPool.sol:LendingPool",
            "label": "sFilTokenAddress",
            "offset": 11,
            "slot": "2",
            "type": "t_address"
          },
          {
            "astId": 5045,
            "contract": "contracts/lendingpool/LendingPool.sol:LendingPool",
            "label": "variableDebtTokenAddress",
            "offset": 0,
            "slot": "3",
            "type": "t_address"
          },
          {
            "astId": 5047,
            "contract": "contracts/lendingpool/LendingPool.sol:LendingPool",
            "label": "interestRateStrategyAddress",
            "offset": 0,
            "slot": "4",
            "type": "t_address"
          }
        ],
        "numberOfBytes": "160"
      },
      "t_uint128": {
        "encoding": "inplace",
        "label": "uint128",
        "numberOfBytes": "16"
      },
      "t_uint16": {
        "encoding": "inplace",
        "label": "uint16",
        "numberOfBytes": "2"
      },
      "t_uint256": {
        "encoding": "inplace",
        "label": "uint256",
        "numberOfBytes": "32"
      },
      "t_uint40": {
        "encoding": "inplace",
        "label": "uint40",
        "numberOfBytes": "5"
      },
      "t_uint8": {
        "encoding": "inplace",
        "label": "uint8",
        "numberOfBytes": "1"
      }
    }
  }
}