{
  "address": "0xea1313c2D2CBae680eb8A70ba2dFF151bC80A104",
  "abi": [
    {
      "anonymous": false,
      "inputs": [
        {
          "indexed": true,
          "internalType": "address",
          "name": "owner",
          "type": "address"
        },
        {
          "indexed": true,
          "internalType": "address",
          "name": "spender",
          "type": "address"
        },
        {
          "indexed": false,
          "internalType": "uint256",
          "name": "value",
          "type": "uint256"
        }
      ],
      "name": "Approval",
      "type": "event"
    },
    {
      "anonymous": false,
      "inputs": [
        {
          "indexed": true,
          "internalType": "address",
          "name": "from",
          "type": "address"
        },
        {
          "indexed": true,
          "internalType": "address",
          "name": "to",
          "type": "address"
        },
        {
          "indexed": false,
          "internalType": "uint256",
          "name": "value",
          "type": "uint256"
        },
        {
          "indexed": false,
          "internalType": "uint256",
          "name": "index",
          "type": "uint256"
        }
      ],
      "name": "BalanceTransfer",
      "type": "event"
    },
    {
      "anonymous": false,
      "inputs": [
        {
          "indexed": true,
          "internalType": "address",
          "name": "from",
          "type": "address"
        },
        {
          "indexed": true,
          "internalType": "address",
          "name": "target",
          "type": "address"
        },
        {
          "indexed": false,
          "internalType": "uint256",
          "name": "value",
          "type": "uint256"
        },
        {
          "indexed": false,
          "internalType": "uint256",
          "name": "index",
          "type": "uint256"
        }
      ],
      "name": "Burn",
      "type": "event"
    },
    {
      "anonymous": false,
      "inputs": [
        {
          "indexed": false,
          "internalType": "uint8",
          "name": "version",
          "type": "uint8"
        }
      ],
      "name": "Initialized",
      "type": "event"
    },
    {
      "anonymous": false,
      "inputs": [
        {
          "indexed": true,
          "internalType": "address",
          "name": "from",
          "type": "address"
        },
        {
          "indexed": false,
          "internalType": "uint256",
          "name": "value",
          "type": "uint256"
        },
        {
          "indexed": false,
          "internalType": "uint256",
          "name": "index",
          "type": "uint256"
        }
      ],
      "name": "Mint",
      "type": "event"
    },
    {
      "anonymous": false,
      "inputs": [
        {
          "indexed": true,
          "internalType": "address",
          "name": "from",
          "type": "address"
        },
        {
          "indexed": true,
          "internalType": "address",
          "name": "to",
          "type": "address"
        },
        {
          "indexed": false,
          "internalType": "uint256",
          "name": "value",
          "type": "uint256"
        }
      ],
      "name": "Transfer",
      "type": "event"
    },
    {
      "inputs": [],
      "name": "POOL",
      "outputs": [
        {
          "internalType": "contract ILendingPool",
          "name": "",
          "type": "address"
        }
      ],
      "stateMutability": "view",
      "type": "function"
    },
    {
      "inputs": [],
      "name": "RESERVE_TREASURY_ADDRESS",
      "outputs": [
        {
          "internalType": "address",
          "name": "",
          "type": "address"
        }
      ],
      "stateMutability": "view",
      "type": "function"
    },
    {
      "inputs": [],
      "name": "UNDERLYING_ASSET_ADDRESS",
      "outputs": [
        {
          "internalType": "address",
          "name": "",
          "type": "address"
        }
      ],
      "stateMutability": "view",
      "type": "function"
    },
    {
      "inputs": [
        {
          "internalType": "address",
          "name": "owner",
          "type": "address"
        },
        {
          "internalType": "address",
          "name": "spender",
          "type": "address"
        }
      ],
      "name": "allowance",
      "outputs": [
        {
          "internalType": "uint256",
          "name": "",
          "type": "uint256"
        }
      ],
      "stateMutability": "view",
      "type": "function"
    },
    {
      "inputs": [
        {
          "internalType": "address",
          "name": "spender",
          "type": "address"
        },
        {
          "internalType": "uint256",
          "name": "amount",
          "type": "uint256"
        }
      ],
      "name": "approve",
      "outputs": [
        {
          "internalType": "bool",
          "name": "",
          "type": "bool"
        }
      ],
      "stateMutability": "nonpayable",
      "type": "function"
    },
    {
      "inputs": [
        {
          "internalType": "address",
          "name": "user",
          "type": "address"
        }
      ],
      "name": "balanceOf",
      "outputs": [
        {
          "internalType": "uint256",
          "name": "",
          "type": "uint256"
        }
      ],
      "stateMutability": "view",
      "type": "function"
    },
    {
      "inputs": [
        {
          "internalType": "address",
          "name": "user",
          "type": "address"
        },
        {
          "internalType": "address",
          "name": "receiver",
          "type": "address"
        },
        {
          "internalType": "uint256",
          "name": "amount",
          "type": "uint256"
        },
        {
          "internalType": "uint256",
          "name": "index",
          "type": "uint256"
        }
      ],
      "name": "burn",
      "outputs": [],
      "stateMutability": "nonpayable",
      "type": "function"
    },
    {
      "inputs": [],
      "name": "decimals",
      "outputs": [
        {
          "internalType": "uint8",
          "name": "",
          "type": "uint8"
        }
      ],
      "stateMutability": "view",
      "type": "function"
    },
    {
      "inputs": [
        {
          "internalType": "address",
          "name": "spender",
          "type": "address"
        },
        {
          "internalType": "uint256",
          "name": "subtractedValue",
          "type": "uint256"
        }
      ],
      "name": "decreaseAllowance",
      "outputs": [
        {
          "internalType": "bool",
          "name": "",
          "type": "bool"
        }
      ],
      "stateMutability": "nonpayable",
      "type": "function"
    },
    {
      "inputs": [
        {
          "internalType": "address",
          "name": "user",
          "type": "address"
        }
      ],
      "name": "getScaledUserBalanceAndSupply",
      "outputs": [
        {
          "internalType": "uint256",
          "name": "",
          "type": "uint256"
        },
        {
          "internalType": "uint256",
          "name": "",
          "type": "uint256"
        }
      ],
      "stateMutability": "view",
      "type": "function"
    },
    {
      "inputs": [
        {
          "internalType": "address",
          "name": "spender",
          "type": "address"
        },
        {
          "internalType": "uint256",
          "name": "addedValue",
          "type": "uint256"
        }
      ],
      "name": "increaseAllowance",
      "outputs": [
        {
          "internalType": "bool",
          "name": "",
          "type": "bool"
        }
      ],
      "stateMutability": "nonpayable",
      "type": "function"
    },
    {
      "inputs": [
        {
          "internalType": "contract ILendingPool",
          "name": "pool",
          "type": "address"
        },
        {
          "internalType": "address",
          "name": "treasury",
          "type": "address"
        },
        {
          "internalType": "address",
          "name": "underlyingAsset",
          "type": "address"
        },
        {
          "internalType": "string",
          "name": "tokenName",
          "type": "string"
        },
        {
          "internalType": "string",
          "name": "tokenSymbol",
          "type": "string"
        }
      ],
      "name": "initialize",
      "outputs": [],
      "stateMutability": "nonpayable",
      "type": "function"
    },
    {
      "inputs": [
        {
          "internalType": "address",
          "name": "user",
          "type": "address"
        },
        {
          "internalType": "uint256",
          "name": "amount",
          "type": "uint256"
        },
        {
          "internalType": "uint256",
          "name": "index",
          "type": "uint256"
        }
      ],
      "name": "mint",
      "outputs": [],
      "stateMutability": "nonpayable",
      "type": "function"
    },
    {
      "inputs": [
        {
          "internalType": "uint256",
          "name": "amount",
          "type": "uint256"
        },
        {
          "internalType": "uint256",
          "name": "index",
          "type": "uint256"
        }
      ],
      "name": "mintToTreasury",
      "outputs": [],
      "stateMutability": "nonpayable",
      "type": "function"
    },
    {
      "inputs": [],
      "name": "name",
      "outputs": [
        {
          "internalType": "string",
          "name": "",
          "type": "string"
        }
      ],
      "stateMutability": "view",
      "type": "function"
    },
    {
      "inputs": [
        {
          "internalType": "address",
          "name": "user",
          "type": "address"
        }
      ],
      "name": "scaledBalanceOf",
      "outputs": [
        {
          "internalType": "uint256",
          "name": "",
          "type": "uint256"
        }
      ],
      "stateMutability": "view",
      "type": "function"
    },
    {
      "inputs": [],
      "name": "scaledTotalSupply",
      "outputs": [
        {
          "internalType": "uint256",
          "name": "",
          "type": "uint256"
        }
      ],
      "stateMutability": "view",
      "type": "function"
    },
    {
      "inputs": [],
      "name": "symbol",
      "outputs": [
        {
          "internalType": "string",
          "name": "",
          "type": "string"
        }
      ],
      "stateMutability": "view",
      "type": "function"
    },
    {
      "inputs": [],
      "name": "totalSupply",
      "outputs": [
        {
          "internalType": "uint256",
          "name": "",
          "type": "uint256"
        }
      ],
      "stateMutability": "view",
      "type": "function"
    },
    {
      "inputs": [
        {
          "internalType": "address",
          "name": "to",
          "type": "address"
        },
        {
          "internalType": "uint256",
          "name": "amount",
          "type": "uint256"
        }
      ],
      "name": "transfer",
      "outputs": [
        {
          "internalType": "bool",
          "name": "",
          "type": "bool"
        }
      ],
      "stateMutability": "nonpayable",
      "type": "function"
    },
    {
      "inputs": [
        {
          "internalType": "address",
          "name": "from",
          "type": "address"
        },
        {
          "internalType": "address",
          "name": "to",
          "type": "address"
        },
        {
          "internalType": "uint256",
          "name": "amount",
          "type": "uint256"
        }
      ],
      "name": "transferFrom",
      "outputs": [
        {
          "internalType": "bool",
          "name": "",
          "type": "bool"
        }
      ],
      "stateMutability": "nonpayable",
      "type": "function"
    },
    {
      "inputs": [
        {
          "internalType": "address",
          "name": "target",
          "type": "address"
        },
        {
          "internalType": "uint256",
          "name": "amount",
          "type": "uint256"
        }
      ],
      "name": "transferUnderlyingTo",
      "outputs": [
        {
          "internalType": "uint256",
          "name": "",
          "type": "uint256"
        }
      ],
      "stateMutability": "nonpayable",
      "type": "function"
    },
    {
      "inputs": [
        {
          "internalType": "address",
          "name": "newTreasuryAddress",
          "type": "address"
        }
      ],
      "name": "updateTreasuryAddress",
      "outputs": [],
      "stateMutability": "nonpayable",
      "type": "function"
    }
  ],
  "transactionHash": "0xd80090122027595c4017095cd1112c0a327416c71cfa9d4f060b8cf76af163e1",
  "args": [],
  "numDeployments": 1,
  "solcInputHash": "99bcda8d6f8face44655b05f91ece4d7",
  "bytecode": "0x60806040523480156200001157600080fd5b50604080518082018252600a80825269115490cc8c17d253541360b21b602080840182815285518087019096529285528401528151919291620000579160049162000076565b5080516200006d90600590602084019062000076565b50505062000159565b82805462000084906200011c565b90600052602060002090601f016020900481019282620000a85760008555620000f3565b82601f10620000c357805160ff1916838001178555620000f3565b82800160010185558215620000f3579182015b82811115620000f3578251825591602001919060010190620000d6565b506200010192915062000105565b5090565b5b8082111562000101576000815560010162000106565b600181811c908216806200013157607f821691505b602082108114156200015357634e487b7160e01b600052602260045260246000fd5b50919050565b611a5e80620001696000396000f3fe608060405234801561001057600080fd5b506004361061014d5760003560e01c80637535d246116100c3578063a9059cbb1161007c578063a9059cbb146102e7578063ae167335146102fa578063b16a19de1461030b578063b1bf962d1461031c578063d7020d0a14610324578063dd62ed3e1461033757600080fd5b80637535d2461461026e5780637df5bd3b1461029357806383b43589146102a6578063841e4561146102b957806395d89b41146102cc578063a457c2d7146102d457600080fd5b80631da24f3e116101155780631da24f3e1461020057806323b872dd14610213578063313ce5671461022657806339509351146102355780634efecaa51461024857806370a082311461025b57600080fd5b806306fdde0314610152578063095ea7b3146101705780630afbcdc914610193578063156e29f6146101d557806318160ddd146101ea575b600080fd5b61015a61034a565b6040516101679190611623565b60405180910390f35b61018361017e36600461166e565b6103dc565b6040519015158152602001610167565b6101c06101a136600461169a565b6001600160a01b03166000908152600160205260409020546003549091565b60408051928352602083019190915201610167565b6101e86101e33660046116b7565b6103f6565b005b6101f26104c3565b604051908152602001610167565b6101f261020e36600461169a565b610569565b6101836102213660046116ec565b610587565b60405160128152602001610167565b61018361024336600461166e565b6105ab565b6101f261025636600461166e565b6105cd565b6101f261026936600461169a565b610620565b6006546001600160a01b03165b6040516001600160a01b039091168152602001610167565b6101e86102a136600461172d565b6106ca565b6101e86102b4366004611798565b61079e565b6101e86102c736600461169a565b610967565b61015a6109bc565b6101836102e236600461166e565b6109cb565b6101836102f536600461166e565b610a46565b6007546001600160a01b031661027b565b6008546001600160a01b031661027b565b6101f2610a54565b6101e8610332366004611840565b610a64565b6101f2610345366004611886565b610b52565b606060048054610359906118bf565b80601f0160208091040260200160405190810160405280929190818152602001828054610385906118bf565b80156103d25780601f106103a7576101008083540402835291602001916103d2565b820191906000526020600020905b8154815290600101906020018083116103b557829003601f168201915b5050505050905090565b6000336103ea818585610b7d565b60019150505b92915050565b6006546001600160a01b0316336001600160a01b0316146104325760405162461bcd60e51b8152600401610429906118f4565b60405180910390fd5b600061043e8383610ca1565b905061044a8482610d92565b6040518381526001600160a01b03851690600090600080516020611a098339815191529060200160405180910390a360408051848152602081018490526001600160a01b038616917f4c209b5fc8ad50758f13e2e1088ba56a560dff690a1c6fef26394f4c03821c4f910160405180910390a250505050565b6000806104cf60035490565b9050806104de57600091505090565b600654604080516325b0985360e21b81529051610563926001600160a01b0316916396c2614c916004808301926020929190829003018186803b15801561052457600080fd5b505afa158015610538573d6000803e3d6000fd5b505050506040513d601f19601f8201168201806040525081019061055c919061192b565b8290610e21565b91505090565b6001600160a01b0381166000908152600160205260408120546103f0565b600033610595858285610eef565b6105a0858585610f69565b506001949350505050565b6000336103ea8185856105be8383610b52565b6105c8919061195a565b610b7d565b6006546000906001600160a01b0316336001600160a01b0316146106035760405162461bcd60e51b8152600401610429906118f4565b60085461061a906001600160a01b0316848461104f565b50919050565b60006103f0600660009054906101000a90046001600160a01b03166001600160a01b03166396c2614c6040518163ffffffff1660e01b815260040160206040518083038186803b15801561067357600080fd5b505afa158015610687573d6000803e3d6000fd5b505050506040513d601f19601f820116820180604052508101906106ab919061192b565b6001600160a01b03841660009081526001602052604090205490610e21565b6006546001600160a01b0316336001600160a01b0316146106fd5760405162461bcd60e51b8152600401610429906118f4565b81610706575050565b6007546001600160a01b0316610725816107208585610ca1565b610d92565b6040518381526001600160a01b03821690600090600080516020611a098339815191529060200160405180910390a360408051848152602081018490526001600160a01b038316917f4c209b5fc8ad50758f13e2e1088ba56a560dff690a1c6fef26394f4c03821c4f910160405180910390a2505b5050565b600054610100900460ff16158080156107be5750600054600160ff909116105b806107d85750303b1580156107d8575060005460ff166001145b61083b5760405162461bcd60e51b815260206004820152602e60248201527f496e697469616c697a61626c653a20636f6e747261637420697320616c72656160448201526d191e481a5b9a5d1a585b1a5e995960921b6064820152608401610429565b6000805460ff19166001179055801561085e576000805461ff0019166101001790555b600680546001600160a01b03808b166001600160a01b031992831617909255600780548a84169083161790556008805492891692909116919091179055604080516020601f87018190048102820181019092528581526108d89187908790819084018382808284376000920191909152506110a692505050565b61091783838080601f0160208091040260200160405190810160405280939291908181526020018383808284376000920191909152506110b992505050565b801561095d576000805461ff0019169055604051600181527f7f26b83ff96e1f2b6a682f133852f6798a09c465da95921460cefb38474024989060200160405180910390a15b5050505050505050565b6006546001600160a01b0316336001600160a01b03161461099a5760405162461bcd60e51b8152600401610429906118f4565b600780546001600160a01b0319166001600160a01b0392909216919091179055565b606060058054610359906118bf565b600033816109d98286610b52565b905083811015610a395760405162461bcd60e51b815260206004820152602560248201527f45524332303a2064656372656173656420616c6c6f77616e63652062656c6f77604482015264207a65726f60d81b6064820152608401610429565b6105a08286868403610b7d565b6000336103ea818585610f69565b6000610a5f60035490565b905090565b6006546001600160a01b0316336001600160a01b031614610a975760405162461bcd60e51b8152600401610429906118f4565b6000610aa38383610ca1565b9050610aaf85826110cc565b600854610ac6906001600160a01b0316858561104f565b6040518381526000906001600160a01b03871690600080516020611a098339815191529060200160405180910390a3836001600160a01b0316856001600160a01b03167f5d624aa9c148153ab3446c1b154f660ee7701e549fe9b62dab7171b1c80e6fa28585604051610b43929190918252602082015260400190565b60405180910390a35050505050565b6001600160a01b03918216600090815260026020908152604080832093909416825291909152205490565b6001600160a01b038316610bdf5760405162461bcd60e51b8152602060048201526024808201527f45524332303a20617070726f76652066726f6d20746865207a65726f206164646044820152637265737360e01b6064820152608401610429565b6001600160a01b038216610c405760405162461bcd60e51b815260206004820152602260248201527f45524332303a20617070726f766520746f20746865207a65726f206164647265604482015261737360f01b6064820152608401610429565b6001600160a01b0383811660008181526002602090815260408083209487168084529482529182902085905590518481527f8c5be1e5ebec7d5bd14f71427d1e84f3dd0314c0f7b2291e5b200ac8c7c3b925910160405180910390a3505050565b600081610ce35760405162461bcd60e51b815260206004820152601060248201526f4449564953494f4e5f42595f5a45524f60801b6044820152606401610429565b6000610cf0600284611972565b90506b033b2e3c9fd0803ce8000000610d0b82600019611994565b610d159190611972565b841115610d5e5760405162461bcd60e51b81526020600482015260176024820152764d554c5449504c49434154494f4e5f4f564552464c4f5760481b6044820152606401610429565b8281610d766b033b2e3c9fd0803ce8000000876119ab565b610d80919061195a565b610d8a9190611972565b949350505050565b6001600160a01b038216610de85760405162461bcd60e51b815260206004820152601f60248201527f45524332303a206d696e7420746f20746865207a65726f2061646472657373006044820152606401610429565b8060036000828254610dfa919061195a565b90915550506001600160a01b03821660009081526001602052604090208054820190555050565b6000821580610e2e575081155b15610e3b575060006103f0565b81610e5360026b033b2e3c9fd0803ce8000000611972565b610e5f90600019611994565b610e699190611972565b831115610eb25760405162461bcd60e51b81526020600482015260176024820152764d554c5449504c49434154494f4e5f4f564552464c4f5760481b6044820152606401610429565b6b033b2e3c9fd0803ce8000000610eca600282611972565b610ed484866119ab565b610ede919061195a565b610ee89190611972565b9392505050565b6000610efb8484610b52565b90506000198114610f635781811015610f565760405162461bcd60e51b815260206004820152601d60248201527f45524332303a20696e73756666696369656e7420616c6c6f77616e63650000006044820152606401610429565b610f638484848403610b7d565b50505050565b600654604080516325b0985360e21b815290516001600160a01b039092169160009183916396c2614c91600480820192602092909190829003018186803b158015610fb357600080fd5b505afa158015610fc7573d6000803e3d6000fd5b505050506040513d601f19601f82011682018060405250810190610feb919061192b565b90506110018585610ffc8685610ca1565b6111d0565b836001600160a01b0316856001600160a01b03167f4beccb90f994c31aced7a23b5611020728a23d8ec5cddd1a3e9d97b96fda86668584604051610b43929190918252602082015260400190565b604080516001600160a01b038416602482015260448082018490528251808303909101815260649091019091526020810180516001600160e01b031663a9059cbb60e01b1790526110a1908490611369565b505050565b805161079a90600490602084019061155e565b805161079a90600590602084019061155e565b6001600160a01b03821661112c5760405162461bcd60e51b815260206004820152602160248201527f45524332303a206275726e2066726f6d20746865207a65726f206164647265736044820152607360f81b6064820152608401610429565b6001600160a01b038216600090815260016020526040902054818110156111a05760405162461bcd60e51b815260206004820152602260248201527f45524332303a206275726e20616d6f756e7420657863656564732062616c616e604482015261636560f01b6064820152608401610429565b6001600160a01b038316600090815260016020526040812083830390556003805484900390556110a19084908483565b6001600160a01b0383166112345760405162461bcd60e51b815260206004820152602560248201527f45524332303a207472616e736665722066726f6d20746865207a65726f206164604482015264647265737360d81b6064820152608401610429565b6001600160a01b0382166112965760405162461bcd60e51b815260206004820152602360248201527f45524332303a207472616e7366657220746f20746865207a65726f206164647260448201526265737360e81b6064820152608401610429565b6001600160a01b0383166000908152600160205260409020548181101561130e5760405162461bcd60e51b815260206004820152602660248201527f45524332303a207472616e7366657220616d6f756e7420657863656564732062604482015265616c616e636560d01b6064820152608401610429565b6001600160a01b038085166000818152600160205260408082208686039055928616808252908390208054860190559151600080516020611a098339815191529061135c9086815260200190565b60405180910390a3610f63565b60006113be826040518060400160405280602081526020017f5361666545524332303a206c6f772d6c6576656c2063616c6c206661696c6564815250856001600160a01b031661143e9092919063ffffffff16565b90508051600014806113df5750808060200190518101906113df91906119ca565b6110a15760405162461bcd60e51b815260206004820152602a60248201527f5361666545524332303a204552433230206f7065726174696f6e20646964206e6044820152691bdd081cdd58d8d9595960b21b6064820152608401610429565b6060610d8a848460008585600080866001600160a01b0316858760405161146591906119ec565b60006040518083038185875af1925050503d80600081146114a2576040519150601f19603f3d011682016040523d82523d6000602084013e6114a7565b606091505b50915091506114b8878383876114c3565b979650505050505050565b6060831561152f578251611528576001600160a01b0385163b6115285760405162461bcd60e51b815260206004820152601d60248201527f416464726573733a2063616c6c20746f206e6f6e2d636f6e74726163740000006044820152606401610429565b5081610d8a565b610d8a83838151156115445781518083602001fd5b8060405162461bcd60e51b81526004016104299190611623565b82805461156a906118bf565b90600052602060002090601f01602090048101928261158c57600085556115d2565b82601f106115a557805160ff19168380011785556115d2565b828001600101855582156115d2579182015b828111156115d25782518255916020019190600101906115b7565b506115de9291506115e2565b5090565b5b808211156115de57600081556001016115e3565b60005b838110156116125781810151838201526020016115fa565b83811115610f635750506000910152565b60208152600082518060208401526116428160408501602087016115f7565b601f01601f19169190910160400192915050565b6001600160a01b038116811461166b57600080fd5b50565b6000806040838503121561168157600080fd5b823561168c81611656565b946020939093013593505050565b6000602082840312156116ac57600080fd5b8135610ee881611656565b6000806000606084860312156116cc57600080fd5b83356116d781611656565b95602085013595506040909401359392505050565b60008060006060848603121561170157600080fd5b833561170c81611656565b9250602084013561171c81611656565b929592945050506040919091013590565b6000806040838503121561174057600080fd5b50508035926020909101359150565b60008083601f84011261176157600080fd5b50813567ffffffffffffffff81111561177957600080fd5b60208301915083602082850101111561179157600080fd5b9250929050565b600080600080600080600060a0888a0312156117b357600080fd5b87356117be81611656565b965060208801356117ce81611656565b955060408801356117de81611656565b9450606088013567ffffffffffffffff808211156117fb57600080fd5b6118078b838c0161174f565b909650945060808a013591508082111561182057600080fd5b5061182d8a828b0161174f565b989b979a50959850939692959293505050565b6000806000806080858703121561185657600080fd5b843561186181611656565b9350602085013561187181611656565b93969395505050506040820135916060013590565b6000806040838503121561189957600080fd5b82356118a481611656565b915060208301356118b481611656565b809150509250929050565b600181811c908216806118d357607f821691505b6020821081141561061a57634e487b7160e01b600052602260045260246000fd5b6020808252601b908201527f43414c4c45525f4d5553545f42455f4c454e44494e475f504f4f4c0000000000604082015260600190565b60006020828403121561193d57600080fd5b5051919050565b634e487b7160e01b600052601160045260246000fd5b6000821982111561196d5761196d611944565b500190565b60008261198f57634e487b7160e01b600052601260045260246000fd5b500490565b6000828210156119a6576119a6611944565b500390565b60008160001904831182151516156119c5576119c5611944565b500290565b6000602082840312156119dc57600080fd5b81518015158114610ee857600080fd5b600082516119fe8184602087016115f7565b919091019291505056feddf252ad1be2c89b69c2b068fc378daa952ba7f163c4a11628f55a4df523b3efa2646970667358221220a5b4d673eab6bb52bbae797d5aeb870ee2fb5362a4673053083422f3f7dcb46d64736f6c63430008090033",
  "devdoc": {
    "kind": "dev",
    "methods": {
      "POOL()": {
        "details": "Returns the address of the lending pool *"
      },
      "RESERVE_TREASURY_ADDRESS()": {
        "details": "Returns the address of the Aave treasury, receiving the fees on sFIL*"
      },
      "UNDERLYING_ASSET_ADDRESS()": {
        "details": "Returns the address of the underlying asset*"
      },
      "allowance(address,address)": {
        "details": "See {IERC20-allowance}."
      },
      "approve(address,uint256)": {
        "details": "See {IERC20-approve}. NOTE: If `amount` is the maximum `uint256`, the allowance is not updated on `transferFrom`. This is semantically equivalent to an infinite approval. Requirements: - `spender` cannot be the zero address."
      },
      "balanceOf(address)": {
        "details": "Calculates the balance of the user: principal balance + interest generated by the principal",
        "params": {
          "user": "The user whose balance is calculated"
        },
        "returns": {
          "_0": "The balance of the user*"
        }
      },
      "burn(address,address,uint256,uint256)": {
        "details": "Burns sFIL from `user` and sends the equivalent amount of FIL to `receiverOfUnderlying` - Only callable by the LendingPool, as extra state updates there need to be managed",
        "params": {
          "amount": "The amount being burned",
          "index": "The new liquidity index of the reserve*",
          "receiver": "The address that will receive the FIL",
          "user": "The owner of the sFIL, getting them burned"
        }
      },
      "decimals()": {
        "details": "Returns the number of decimals used to get its user representation. For example, if `decimals` equals `2`, a balance of `505` tokens should be displayed to a user as `5.05` (`505 / 10 ** 2`). Tokens usually opt for a value of 18, imitating the relationship between Ether and Wei. This is the default value returned by this function, unless it's overridden. NOTE: This information is only used for _display_ purposes: it in no way affects any of the arithmetic of the contract, including {IERC20-balanceOf} and {IERC20-transfer}."
      },
      "decreaseAllowance(address,uint256)": {
        "details": "Atomically decreases the allowance granted to `spender` by the caller. This is an alternative to {approve} that can be used as a mitigation for problems described in {IERC20-approve}. Emits an {Approval} event indicating the updated allowance. Requirements: - `spender` cannot be the zero address. - `spender` must have allowance for the caller of at least `subtractedValue`."
      },
      "getScaledUserBalanceAndSupply(address)": {
        "details": "Returns the scaled balance of the user and the scaled total supply.",
        "params": {
          "user": "The address of the user"
        },
        "returns": {
          "_0": "The scaled balance of the user",
          "_1": "The scaled balance and the scaled total supply*"
        }
      },
      "increaseAllowance(address,uint256)": {
        "details": "Atomically increases the allowance granted to `spender` by the caller. This is an alternative to {approve} that can be used as a mitigation for problems described in {IERC20-approve}. Emits an {Approval} event indicating the updated allowance. Requirements: - `spender` cannot be the zero address."
      },
      "mint(address,uint256,uint256)": {
        "details": "Mints `amount` sFIL to `user` - Only callable by the LendingPool, as extra state updates there need to be managed",
        "params": {
          "amount": "The amount of tokens getting minted",
          "index": "The new liquidity index of the reserve",
          "user": "The address receiving the minted tokens"
        }
      },
      "mintToTreasury(uint256,uint256)": {
        "details": "Mints sFIL to the reserve treasury - Only callable by the LendingPool",
        "params": {
          "amount": "The amount of tokens getting minted",
          "index": "The new liquidity index of the reserve"
        }
      },
      "name()": {
        "details": "Returns the name of the token."
      },
      "scaledBalanceOf(address)": {
        "details": "Returns the scaled balance of the user. The scaled balance is the sum of all the updated stored balance divided by the reserve's liquidity index at the moment of the update",
        "params": {
          "user": "The user whose balance is calculated"
        },
        "returns": {
          "_0": "The scaled balance of the user*"
        }
      },
      "scaledTotalSupply()": {
        "details": "Returns the scaled total supply of the variable debt token. Represents sum(debt/index)",
        "returns": {
          "_0": "the scaled total supply*"
        }
      },
      "symbol()": {
        "details": "Returns the symbol of the token, usually a shorter version of the name."
      },
      "totalSupply()": {
        "details": "calculates the total supply of sFIL since the balance of every single user increases over time, the total supply does that too.",
        "returns": {
          "_0": "the current total supply*"
        }
      },
      "transfer(address,uint256)": {
        "details": "See {IERC20-transfer}. Requirements: - `to` cannot be the zero address. - the caller must have a balance of at least `amount`."
      },
      "transferFrom(address,address,uint256)": {
        "details": "See {IERC20-transferFrom}. Emits an {Approval} event indicating the updated allowance. This is not required by the EIP. See the note at the beginning of {ERC20}. NOTE: Does not update the allowance if the current allowance is the maximum `uint256`. Requirements: - `from` and `to` cannot be the zero address. - `from` must have a balance of at least `amount`. - the caller must have allowance for ``from``'s tokens of at least `amount`."
      },
      "transferUnderlyingTo(address,uint256)": {
        "details": "Transfers the underlying asset to `target`. Used by the LendingPool to transfer assets in borrow(), withdraw()",
        "params": {
          "amount": "The amount getting transferred",
          "target": "The recipient of sFIL"
        },
        "returns": {
          "_0": "The amount transferred*"
        }
      }
    },
    "version": 1
  },
  "userdoc": {
    "kind": "user",
    "methods": {},
    "version": 1
  },
  "storageLayout": {
    "storage": [
      {
        "astId": 244,
        "contract": "contracts/tokenization/SFilToken.sol:SFilToken",
        "label": "_initialized",
        "offset": 0,
        "slot": "0",
        "type": "t_uint8"
      },
      {
        "astId": 247,
        "contract": "contracts/tokenization/SFilToken.sol:SFilToken",
        "label": "_initializing",
        "offset": 1,
        "slot": "0",
        "type": "t_bool"
      },
      {
        "astId": 5501,
        "contract": "contracts/tokenization/SFilToken.sol:SFilToken",
        "label": "_balances",
        "offset": 0,
        "slot": "1",
        "type": "t_mapping(t_address,t_uint256)"
      },
      {
        "astId": 5507,
        "contract": "contracts/tokenization/SFilToken.sol:SFilToken",
        "label": "_allowances",
        "offset": 0,
        "slot": "2",
        "type": "t_mapping(t_address,t_mapping(t_address,t_uint256))"
      },
      {
        "astId": 5509,
        "contract": "contracts/tokenization/SFilToken.sol:SFilToken",
        "label": "_totalSupply",
        "offset": 0,
        "slot": "3",
        "type": "t_uint256"
      },
      {
        "astId": 5511,
        "contract": "contracts/tokenization/SFilToken.sol:SFilToken",
        "label": "_name",
        "offset": 0,
        "slot": "4",
        "type": "t_string_storage"
      },
      {
        "astId": 5513,
        "contract": "contracts/tokenization/SFilToken.sol:SFilToken",
        "label": "_symbol",
        "offset": 0,
        "slot": "5",
        "type": "t_string_storage"
      },
      {
        "astId": 4831,
        "contract": "contracts/tokenization/SFilToken.sol:SFilToken",
        "label": "_pool",
        "offset": 0,
        "slot": "6",
        "type": "t_contract(ILendingPool)2722"
      },
      {
        "astId": 4833,
        "contract": "contracts/tokenization/SFilToken.sol:SFilToken",
        "label": "_treasury",
        "offset": 0,
        "slot": "7",
        "type": "t_address"
      },
      {
        "astId": 4835,
        "contract": "contracts/tokenization/SFilToken.sol:SFilToken",
        "label": "_underlyingAsset",
        "offset": 0,
        "slot": "8",
        "type": "t_address"
      }
    ],
    "types": {
      "t_address": {
        "encoding": "inplace",
        "label": "address",
        "numberOfBytes": "20"
      },
      "t_bool": {
        "encoding": "inplace",
        "label": "bool",
        "numberOfBytes": "1"
      },
      "t_contract(ILendingPool)2722": {
        "encoding": "inplace",
        "label": "contract ILendingPool",
        "numberOfBytes": "20"
      },
      "t_mapping(t_address,t_mapping(t_address,t_uint256))": {
        "encoding": "mapping",
        "key": "t_address",
        "label": "mapping(address => mapping(address => uint256))",
        "numberOfBytes": "32",
        "value": "t_mapping(t_address,t_uint256)"
      },
      "t_mapping(t_address,t_uint256)": {
        "encoding": "mapping",
        "key": "t_address",
        "label": "mapping(address => uint256)",
        "numberOfBytes": "32",
        "value": "t_uint256"
      },
      "t_string_storage": {
        "encoding": "bytes",
        "label": "string",
        "numberOfBytes": "32"
      },
      "t_uint256": {
        "encoding": "inplace",
        "label": "uint256",
        "numberOfBytes": "32"
      },
      "t_uint8": {
        "encoding": "inplace",
        "label": "uint8",
        "numberOfBytes": "1"
      }
    }
  }
}