{
  "address": "0xc91CE66f374a3b9f7e8A6fd408948c4B1891CeaB",
  "abi": [
    {
      "anonymous": false,
      "inputs": [
        {
          "indexed": true,
          "internalType": "address",
          "name": "owner",
          "type": "address"
        },
        {
          "indexed": true,
          "internalType": "address",
          "name": "spender",
          "type": "address"
        },
        {
          "indexed": false,
          "internalType": "uint256",
          "name": "value",
          "type": "uint256"
        }
      ],
      "name": "Approval",
      "type": "event"
    },
    {
      "anonymous": false,
      "inputs": [
        {
          "indexed": true,
          "internalType": "address",
          "name": "user",
          "type": "address"
        },
        {
          "indexed": false,
          "internalType": "uint256",
          "name": "amount",
          "type": "uint256"
        },
        {
          "indexed": false,
          "internalType": "uint256",
          "name": "index",
          "type": "uint256"
        }
      ],
      "name": "Burn",
      "type": "event"
    },
    {
      "anonymous": false,
      "inputs": [
        {
          "indexed": false,
          "internalType": "uint8",
          "name": "version",
          "type": "uint8"
        }
      ],
      "name": "Initialized",
      "type": "event"
    },
    {
      "anonymous": false,
      "inputs": [
        {
          "indexed": true,
          "internalType": "address",
          "name": "user",
          "type": "address"
        },
        {
          "indexed": false,
          "internalType": "uint256",
          "name": "value",
          "type": "uint256"
        },
        {
          "indexed": false,
          "internalType": "uint256",
          "name": "index",
          "type": "uint256"
        }
      ],
      "name": "Mint",
      "type": "event"
    },
    {
      "anonymous": false,
      "inputs": [
        {
          "indexed": true,
          "internalType": "address",
          "name": "from",
          "type": "address"
        },
        {
          "indexed": true,
          "internalType": "address",
          "name": "to",
          "type": "address"
        },
        {
          "indexed": false,
          "internalType": "uint256",
          "name": "value",
          "type": "uint256"
        }
      ],
      "name": "Transfer",
      "type": "event"
    },
    {
      "inputs": [],
      "name": "POOL",
      "outputs": [
        {
          "internalType": "contract ILendingPool",
          "name": "",
          "type": "address"
        }
      ],
      "stateMutability": "view",
      "type": "function"
    },
    {
      "inputs": [
        {
          "internalType": "address",
          "name": "owner",
          "type": "address"
        },
        {
          "internalType": "address",
          "name": "spender",
          "type": "address"
        }
      ],
      "name": "allowance",
      "outputs": [
        {
          "internalType": "uint256",
          "name": "",
          "type": "uint256"
        }
      ],
      "stateMutability": "view",
      "type": "function"
    },
    {
      "inputs": [
        {
          "internalType": "address",
          "name": "spender",
          "type": "address"
        },
        {
          "internalType": "uint256",
          "name": "amount",
          "type": "uint256"
        }
      ],
      "name": "approve",
      "outputs": [
        {
          "internalType": "bool",
          "name": "",
          "type": "bool"
        }
      ],
      "stateMutability": "nonpayable",
      "type": "function"
    },
    {
      "inputs": [
        {
          "internalType": "address",
          "name": "user",
          "type": "address"
        }
      ],
      "name": "balanceOf",
      "outputs": [
        {
          "internalType": "uint256",
          "name": "",
          "type": "uint256"
        }
      ],
      "stateMutability": "view",
      "type": "function"
    },
    {
      "inputs": [
        {
          "internalType": "address",
          "name": "user",
          "type": "address"
        },
        {
          "internalType": "uint256",
          "name": "amount",
          "type": "uint256"
        },
        {
          "internalType": "uint256",
          "name": "index",
          "type": "uint256"
        }
      ],
      "name": "burn",
      "outputs": [],
      "stateMutability": "nonpayable",
      "type": "function"
    },
    {
      "inputs": [],
      "name": "decimals",
      "outputs": [
        {
          "internalType": "uint8",
          "name": "",
          "type": "uint8"
        }
      ],
      "stateMutability": "view",
      "type": "function"
    },
    {
      "inputs": [
        {
          "internalType": "address",
          "name": "spender",
          "type": "address"
        },
        {
          "internalType": "uint256",
          "name": "subtractedValue",
          "type": "uint256"
        }
      ],
      "name": "decreaseAllowance",
      "outputs": [
        {
          "internalType": "bool",
          "name": "",
          "type": "bool"
        }
      ],
      "stateMutability": "nonpayable",
      "type": "function"
    },
    {
      "inputs": [
        {
          "internalType": "address",
          "name": "user",
          "type": "address"
        }
      ],
      "name": "getScaledUserBalanceAndSupply",
      "outputs": [
        {
          "internalType": "uint256",
          "name": "",
          "type": "uint256"
        },
        {
          "internalType": "uint256",
          "name": "",
          "type": "uint256"
        }
      ],
      "stateMutability": "view",
      "type": "function"
    },
    {
      "inputs": [
        {
          "internalType": "address",
          "name": "spender",
          "type": "address"
        },
        {
          "internalType": "uint256",
          "name": "addedValue",
          "type": "uint256"
        }
      ],
      "name": "increaseAllowance",
      "outputs": [
        {
          "internalType": "bool",
          "name": "",
          "type": "bool"
        }
      ],
      "stateMutability": "nonpayable",
      "type": "function"
    },
    {
      "inputs": [
        {
          "internalType": "contract ILendingPool",
          "name": "pool",
          "type": "address"
        },
        {
          "internalType": "string",
          "name": "tokenName",
          "type": "string"
        },
        {
          "internalType": "string",
          "name": "tokenSymbol",
          "type": "string"
        }
      ],
      "name": "initialize",
      "outputs": [],
      "stateMutability": "nonpayable",
      "type": "function"
    },
    {
      "inputs": [
        {
          "internalType": "address",
          "name": "user",
          "type": "address"
        },
        {
          "internalType": "uint256",
          "name": "amount",
          "type": "uint256"
        },
        {
          "internalType": "uint256",
          "name": "index",
          "type": "uint256"
        }
      ],
      "name": "mint",
      "outputs": [],
      "stateMutability": "nonpayable",
      "type": "function"
    },
    {
      "inputs": [],
      "name": "name",
      "outputs": [
        {
          "internalType": "string",
          "name": "",
          "type": "string"
        }
      ],
      "stateMutability": "view",
      "type": "function"
    },
    {
      "inputs": [
        {
          "internalType": "address",
          "name": "user",
          "type": "address"
        }
      ],
      "name": "scaledBalanceOf",
      "outputs": [
        {
          "internalType": "uint256",
          "name": "",
          "type": "uint256"
        }
      ],
      "stateMutability": "view",
      "type": "function"
    },
    {
      "inputs": [],
      "name": "scaledTotalSupply",
      "outputs": [
        {
          "internalType": "uint256",
          "name": "",
          "type": "uint256"
        }
      ],
      "stateMutability": "view",
      "type": "function"
    },
    {
      "inputs": [],
      "name": "symbol",
      "outputs": [
        {
          "internalType": "string",
          "name": "",
          "type": "string"
        }
      ],
      "stateMutability": "view",
      "type": "function"
    },
    {
      "inputs": [],
      "name": "totalSupply",
      "outputs": [
        {
          "internalType": "uint256",
          "name": "",
          "type": "uint256"
        }
      ],
      "stateMutability": "view",
      "type": "function"
    },
    {
      "inputs": [
        {
          "internalType": "address",
          "name": "recipient",
          "type": "address"
        },
        {
          "internalType": "uint256",
          "name": "amount",
          "type": "uint256"
        }
      ],
      "name": "transfer",
      "outputs": [
        {
          "internalType": "bool",
          "name": "",
          "type": "bool"
        }
      ],
      "stateMutability": "nonpayable",
      "type": "function"
    },
    {
      "inputs": [
        {
          "internalType": "address",
          "name": "sender",
          "type": "address"
        },
        {
          "internalType": "address",
          "name": "recipient",
          "type": "address"
        },
        {
          "internalType": "uint256",
          "name": "amount",
          "type": "uint256"
        }
      ],
      "name": "transferFrom",
      "outputs": [
        {
          "internalType": "bool",
          "name": "",
          "type": "bool"
        }
      ],
      "stateMutability": "nonpayable",
      "type": "function"
    }
  ],
  "transactionHash": "0x3ecbb7ea879837d3e0d04ce48733afa665e86a4f078aae8c11a8298769169200",
  "args": [],
  "numDeployments": 1,
  "solcInputHash": "99bcda8d6f8face44655b05f91ece4d7",
  "bytecode": "0x60806040523480156200001157600080fd5b50604080518082018252600e8082526d111150951513d2d15397d253541360921b6020808401828152855180870190965292855284015281519192916200005b916004916200007a565b508051620000719060059060208401906200007a565b5050506200015d565b828054620000889062000120565b90600052602060002090601f016020900481019282620000ac5760008555620000f7565b82601f10620000c757805160ff1916838001178555620000f7565b82800160010185558215620000f7579182015b82811115620000f7578251825591602001919060010190620000da565b506200010592915062000109565b5090565b5b808211156200010557600081556001016200010a565b600181811c908216806200013557607f821691505b602082108114156200015757634e487b7160e01b600052602260045260246000fd5b50919050565b6110af806200016d6000396000f3fe608060405234801561001057600080fd5b50600436106101165760003560e01c806370a08231116100a2578063a457c2d711610071578063a457c2d7146101fe578063a9059cbb1461025a578063b1bf962d14610268578063dd62ed3e14610270578063f5298aca1461027e57600080fd5b806370a08231146102115780637535d24614610224578063906571471461023f57806395d89b411461025257600080fd5b806318160ddd116100e957806318160ddd146101b35780631da24f3e146101c957806323b872dd146101dc578063313ce567146101ef57806339509351146101fe57600080fd5b806306fdde031461011b578063095ea7b3146101395780630afbcdc91461015c578063156e29f61461019e575b600080fd5b610123610291565b6040516101309190610d6e565b60405180910390f35b61014c610147366004610ddb565b610323565b6040519015158152602001610130565b61018961016a366004610e07565b6001600160a01b03166000908152600160205260409020546003549091565b60408051928352602083019190915201610130565b6101b16101ac366004610e24565b61036c565b005b6101bb61046a565b604051908152602001610130565b6101bb6101d7366004610e07565b610503565b61014c6101ea366004610e59565b610523565b60405160128152602001610130565b61014c61020c366004610ddb565b610567565b6101bb61021f366004610e07565b6105b2565b6006546040516001600160a01b039091168152602001610130565b6101b161024d366004610ee3565b610665565b61012361080a565b61014c6101ea366004610ddb565b6101bb610819565b6101bb61020c366004610f66565b6101b161028c366004610e24565b610824565b6060600480546102a090610f9f565b80601f01602080910402602001604051908101604052809291908181526020018280546102cc90610f9f565b80156103195780601f106102ee57610100808354040283529160200191610319565b820191906000526020600020905b8154815290600101906020018083116102fc57829003601f168201915b5050505050905090565b60405162461bcd60e51b81526020600482015260166024820152751054141493d5905317d393d517d4d5541413d495115160521b60448201526000906064015b60405180910390fd5b6006546001600160a01b031633146103c65760405162461bcd60e51b815260206004820152601b60248201527f43414c4c45525f4d5553545f42455f4c454e44494e475f504f4f4c00000000006044820152606401610363565b60006103d2838361095b565b90506103de8482610a4c565b6040518381526001600160a01b038516906000907fddf252ad1be2c89b69c2b068fc378daa952ba7f163c4a11628f55a4df523b3ef9060200160405180910390a360408051848152602081018490526001600160a01b038616917f4c209b5fc8ad50758f13e2e1088ba56a560dff690a1c6fef26394f4c03821c4f91015b60405180910390a250505050565b60006104fe600660009054906101000a90046001600160a01b03166001600160a01b031663feb7bb576040518163ffffffff1660e01b815260040160206040518083038186803b1580156104bd57600080fd5b505afa1580156104d1573d6000803e3d6000fd5b505050506040513d601f19601f820116820180604052508101906104f59190610fda565b60035490610adf565b905090565b6001600160a01b0381166000908152600160205260408120545b92915050565b60405162461bcd60e51b81526020600482015260166024820152751514905394d1915497d393d517d4d5541413d495115160521b6044820152600090606401610363565b60405162461bcd60e51b815260206004820152601760248201527f414c4c4f57414e43455f4e4f545f535550504f525445440000000000000000006044820152600090606401610363565b6001600160a01b038116600090815260016020526040812054806105d95750600092915050565b6006546040805163feb7bb5760e01b8152905161065e926001600160a01b03169163feb7bb57916004808301926020929190829003018186803b15801561061f57600080fd5b505afa158015610633573d6000803e3d6000fd5b505050506040513d601f19601f820116820180604052508101906106579190610fda565b8290610adf565b9392505050565b600054610100900460ff16158080156106855750600054600160ff909116105b8061069f5750303b15801561069f575060005460ff166001145b6107025760405162461bcd60e51b815260206004820152602e60248201527f496e697469616c697a61626c653a20636f6e747261637420697320616c72656160448201526d191e481a5b9a5d1a585b1a5e995960921b6064820152608401610363565b6000805460ff191660011790558015610725576000805461ff0019166101001790555b600680546001600160a01b0319166001600160a01b038816179055604080516020601f870181900481028201810190925285815261077d918790879081908401838280828437600092019190915250610ba692505050565b6107bc83838080601f016020809104026020016040519081016040528093929190818152602001838380828437600092019190915250610bb992505050565b8015610802576000805461ff0019169055604051600181527f7f26b83ff96e1f2b6a682f133852f6798a09c465da95921460cefb38474024989060200160405180910390a15b505050505050565b6060600580546102a090610f9f565b60006104fe60035490565b6006546001600160a01b0316331461087e5760405162461bcd60e51b815260206004820152601b60248201527f43414c4c45525f4d5553545f42455f4c454e44494e475f504f4f4c00000000006044820152606401610363565b600061088a838361095b565b9050806108cf5760405162461bcd60e51b81526020600482015260136024820152721253959053125117d095549397d05353d55395606a1b6044820152606401610363565b6108d98482610bcc565b6040518381526000906001600160a01b038616907fddf252ad1be2c89b69c2b068fc378daa952ba7f163c4a11628f55a4df523b3ef9060200160405180910390a360408051848152602081018490526001600160a01b038616917f49995e5dd6158cf69ad3e9777c46755a1a826a446c6416992167462dad033b2a910161045c565b60008161099d5760405162461bcd60e51b815260206004820152601060248201526f4449564953494f4e5f42595f5a45524f60801b6044820152606401610363565b60006109aa600284611009565b90506b033b2e3c9fd0803ce80000006109c58260001961102b565b6109cf9190611009565b841115610a185760405162461bcd60e51b81526020600482015260176024820152764d554c5449504c49434154494f4e5f4f564552464c4f5760481b6044820152606401610363565b8281610a306b033b2e3c9fd0803ce800000087611042565b610a3a9190611061565b610a449190611009565b949350505050565b6001600160a01b038216610aa25760405162461bcd60e51b815260206004820152601f60248201527f45524332303a206d696e7420746f20746865207a65726f2061646472657373006044820152606401610363565b8060036000828254610ab49190611061565b90915550506001600160a01b03821660009081526001602052604090208054820190555050565b5050565b6000821580610aec575081155b15610af95750600061051d565b81610b1160026b033b2e3c9fd0803ce8000000611009565b610b1d9060001961102b565b610b279190611009565b831115610b705760405162461bcd60e51b81526020600482015260176024820152764d554c5449504c49434154494f4e5f4f564552464c4f5760481b6044820152606401610363565b6b033b2e3c9fd0803ce8000000610b88600282611009565b610b928486611042565b610b9c9190611061565b61065e9190611009565b8051610adb906004906020840190610cd5565b8051610adb906005906020840190610cd5565b6001600160a01b038216610c2c5760405162461bcd60e51b815260206004820152602160248201527f45524332303a206275726e2066726f6d20746865207a65726f206164647265736044820152607360f81b6064820152608401610363565b6001600160a01b03821660009081526001602052604090205481811015610ca05760405162461bcd60e51b815260206004820152602260248201527f45524332303a206275726e20616d6f756e7420657863656564732062616c616e604482015261636560f01b6064820152608401610363565b6001600160a01b03831660009081526001602052604081208383039055600380548490039055610cd09084908483565b505050565b828054610ce190610f9f565b90600052602060002090601f016020900481019282610d035760008555610d49565b82601f10610d1c57805160ff1916838001178555610d49565b82800160010185558215610d49579182015b82811115610d49578251825591602001919060010190610d2e565b50610d55929150610d59565b5090565b5b80821115610d555760008155600101610d5a565b600060208083528351808285015260005b81811015610d9b57858101830151858201604001528201610d7f565b81811115610dad576000604083870101525b50601f01601f1916929092016040019392505050565b6001600160a01b0381168114610dd857600080fd5b50565b60008060408385031215610dee57600080fd5b8235610df981610dc3565b946020939093013593505050565b600060208284031215610e1957600080fd5b813561065e81610dc3565b600080600060608486031215610e3957600080fd5b8335610e4481610dc3565b95602085013595506040909401359392505050565b600080600060608486031215610e6e57600080fd5b8335610e7981610dc3565b92506020840135610e8981610dc3565b929592945050506040919091013590565b60008083601f840112610eac57600080fd5b50813567ffffffffffffffff811115610ec457600080fd5b602083019150836020828501011115610edc57600080fd5b9250929050565b600080600080600060608688031215610efb57600080fd5b8535610f0681610dc3565b9450602086013567ffffffffffffffff80821115610f2357600080fd5b610f2f89838a01610e9a565b90965094506040880135915080821115610f4857600080fd5b50610f5588828901610e9a565b969995985093965092949392505050565b60008060408385031215610f7957600080fd5b8235610f8481610dc3565b91506020830135610f9481610dc3565b809150509250929050565b600181811c90821680610fb357607f821691505b60208210811415610fd457634e487b7160e01b600052602260045260246000fd5b50919050565b600060208284031215610fec57600080fd5b5051919050565b634e487b7160e01b600052601160045260246000fd5b60008261102657634e487b7160e01b600052601260045260246000fd5b500490565b60008282101561103d5761103d610ff3565b500390565b600081600019048311821515161561105c5761105c610ff3565b500290565b6000821982111561107457611074610ff3565b50019056fea2646970667358221220375348b633f162ca2f2191867ee7390b63c2dc2b28d8a6bbc213ec1edc90f46b64736f6c63430008090033",
  "devdoc": {
    "kind": "dev",
    "methods": {
      "POOL()": {
        "details": "Returns the address of the lending pool where this aToken is used*"
      },
      "allowance(address,address)": {
        "details": "See {IERC20-allowance}."
      },
      "approve(address,uint256)": {
        "details": "See {IERC20-approve}. NOTE: If `amount` is the maximum `uint256`, the allowance is not updated on `transferFrom`. This is semantically equivalent to an infinite approval. Requirements: - `spender` cannot be the zero address."
      },
      "balanceOf(address)": {
        "details": "Calculates the accumulated debt balance of the user",
        "returns": {
          "_0": "The debt balance of the user*"
        }
      },
      "burn(address,uint256,uint256)": {
        "details": "Burns user variable debt - Only callable by the LendingPool",
        "params": {
          "amount": "The amount getting burned",
          "index": "The variable debt index of the reserve*",
          "user": "The user whose debt is getting burned"
        }
      },
      "decimals()": {
        "details": "Returns the number of decimals used to get its user representation. For example, if `decimals` equals `2`, a balance of `505` tokens should be displayed to a user as `5.05` (`505 / 10 ** 2`). Tokens usually opt for a value of 18, imitating the relationship between Ether and Wei. This is the default value returned by this function, unless it's overridden. NOTE: This information is only used for _display_ purposes: it in no way affects any of the arithmetic of the contract, including {IERC20-balanceOf} and {IERC20-transfer}."
      },
      "decreaseAllowance(address,uint256)": {
        "details": "Atomically decreases the allowance granted to `spender` by the caller. This is an alternative to {approve} that can be used as a mitigation for problems described in {IERC20-approve}. Emits an {Approval} event indicating the updated allowance. Requirements: - `spender` cannot be the zero address. - `spender` must have allowance for the caller of at least `subtractedValue`."
      },
      "getScaledUserBalanceAndSupply(address)": {
        "details": "Returns the principal balance of the user and principal total supply.",
        "params": {
          "user": "The address of the user"
        },
        "returns": {
          "_0": "The principal balance of the user",
          "_1": "The principal total supply*"
        }
      },
      "increaseAllowance(address,uint256)": {
        "details": "Atomically increases the allowance granted to `spender` by the caller. This is an alternative to {approve} that can be used as a mitigation for problems described in {IERC20-approve}. Emits an {Approval} event indicating the updated allowance. Requirements: - `spender` cannot be the zero address."
      },
      "mint(address,uint256,uint256)": {
        "details": "Mints debt token to the `onBehalfOf` address -  Only callable by the LendingPool",
        "params": {
          "amount": "The amount of debt being minted",
          "index": "The variable debt index of the reserve*",
          "user": "The address receiving the borrowed underlying and the debt tokens"
        }
      },
      "name()": {
        "details": "Returns the name of the token."
      },
      "scaledBalanceOf(address)": {
        "details": "Returns the principal debt balance of the user from",
        "returns": {
          "_0": "The debt balance of the user since the last burn/mint action*"
        }
      },
      "scaledTotalSupply()": {
        "details": "Returns the scaled total supply of the variable debt token. Represents sum(debt/index)",
        "returns": {
          "_0": "the scaled total supply*"
        }
      },
      "symbol()": {
        "details": "Returns the symbol of the token, usually a shorter version of the name."
      },
      "totalSupply()": {
        "details": "Returns the total supply of the variable debt token. Represents the total debt accrued by the users",
        "returns": {
          "_0": "The total supply*"
        }
      },
      "transfer(address,uint256)": {
        "details": "Being non transferrable, the debt token does not implement any of the standard ERC20 functions for transfer and allowance.*"
      }
    },
    "title": "VariableDebtToken",
    "version": 1
  },
  "userdoc": {
    "kind": "user",
    "methods": {},
    "notice": "Implements a variable debt token to track the borrowing positions of users at variable rate mode*",
    "version": 1
  },
  "storageLayout": {
    "storage": [
      {
        "astId": 244,
        "contract": "contracts/tokenization/VariableDebtToken.sol:VariableDebtToken",
        "label": "_initialized",
        "offset": 0,
        "slot": "0",
        "type": "t_uint8"
      },
      {
        "astId": 247,
        "contract": "contracts/tokenization/VariableDebtToken.sol:VariableDebtToken",
        "label": "_initializing",
        "offset": 1,
        "slot": "0",
        "type": "t_bool"
      },
      {
        "astId": 5501,
        "contract": "contracts/tokenization/VariableDebtToken.sol:VariableDebtToken",
        "label": "_balances",
        "offset": 0,
        "slot": "1",
        "type": "t_mapping(t_address,t_uint256)"
      },
      {
        "astId": 5507,
        "contract": "contracts/tokenization/VariableDebtToken.sol:VariableDebtToken",
        "label": "_allowances",
        "offset": 0,
        "slot": "2",
        "type": "t_mapping(t_address,t_mapping(t_address,t_uint256))"
      },
      {
        "astId": 5509,
        "contract": "contracts/tokenization/VariableDebtToken.sol:VariableDebtToken",
        "label": "_totalSupply",
        "offset": 0,
        "slot": "3",
        "type": "t_uint256"
      },
      {
        "astId": 5511,
        "contract": "contracts/tokenization/VariableDebtToken.sol:VariableDebtToken",
        "label": "_name",
        "offset": 0,
        "slot": "4",
        "type": "t_string_storage"
      },
      {
        "astId": 5513,
        "contract": "contracts/tokenization/VariableDebtToken.sol:VariableDebtToken",
        "label": "_symbol",
        "offset": 0,
        "slot": "5",
        "type": "t_string_storage"
      },
      {
        "astId": 5257,
        "contract": "contracts/tokenization/VariableDebtToken.sol:VariableDebtToken",
        "label": "_pool",
        "offset": 0,
        "slot": "6",
        "type": "t_contract(ILendingPool)2722"
      }
    ],
    "types": {
      "t_address": {
        "encoding": "inplace",
        "label": "address",
        "numberOfBytes": "20"
      },
      "t_bool": {
        "encoding": "inplace",
        "label": "bool",
        "numberOfBytes": "1"
      },
      "t_contract(ILendingPool)2722": {
        "encoding": "inplace",
        "label": "contract ILendingPool",
        "numberOfBytes": "20"
      },
      "t_mapping(t_address,t_mapping(t_address,t_uint256))": {
        "encoding": "mapping",
        "key": "t_address",
        "label": "mapping(address => mapping(address => uint256))",
        "numberOfBytes": "32",
        "value": "t_mapping(t_address,t_uint256)"
      },
      "t_mapping(t_address,t_uint256)": {
        "encoding": "mapping",
        "key": "t_address",
        "label": "mapping(address => uint256)",
        "numberOfBytes": "32",
        "value": "t_uint256"
      },
      "t_string_storage": {
        "encoding": "bytes",
        "label": "string",
        "numberOfBytes": "32"
      },
      "t_uint256": {
        "encoding": "inplace",
        "label": "uint256",
        "numberOfBytes": "32"
      },
      "t_uint8": {
        "encoding": "inplace",
        "label": "uint8",
        "numberOfBytes": "1"
      }
    }
  }
}